:100000000C9411790C9442790C9442790C944279B5
:100010000C9442790C9442790C9442790C94427974
:100020000C9442790C9442790C9442790C94427964
:100030000C9442790D94E95D0C9442790C944279C8
:100040000C9442790D944F1B0C9442790C94427994
:100050000C9442790C9442790D94AE0D0D949F5DF1
:100060000C9442790C944FED0C9442790C944279A3
:100070000C9442790C9442790C9442790C94427914
:100080000C9442790C9442790C9442790C94427904
:100090000C9442790C9442790C9442790C944279F4
:1000A0000C9442790C9442790C9442790C944279E4
:1000B0000C9442790C9442790C9442790C944279D4
:1000C0000C9442790C9442790C9442790C944279C4
:1000D0000C9442790C9442790C9426ED0C9442795C
:1000E0000C94427905A84CCDB2D44EB93836A90249
:1000F0000C50B9918688083CA6AAAA2ABE00000026
:10010000803F0C94C8F10C946CFC0D94615B0D94D1
:100110003A480C943C970D9456480C9428890C94BA
:1001200088F50D943E5B0C9440F50D94E4050C9419
:1001300085F50D942C5B0D946B5B0C94A3ED0C94E6
:10014000DAF10D94D9450D94124B0C940E970D9441
:100150004E4B0C94E4F10C948DF50C945FF10C94DF
:100160006AF60C9490990C94ED970C948B9A0C94DD
:10017000D4F10D94782C0D94105B0D9438650C948B
:100180007FF50D9492640D94706F0C9492F50D941C
:1001900055090C94ED9A0C94C3F10C9460FF0D94E6
:1001A0003A110D94935B0D9437020C94EFF10C947B
:1001B000BDFF0D94334F0D94E1070D9463770C94BC
:1001C00079F50C9402FF0D94A6770D9455480D9483
:1001D0004B4C0D94015B0D941A5B0D94755B0D9463
:1001E00020620C9434F50C943AF50C94249A0D94F6
:1001F000D4090D9432020D9483480C941B980D94ED
:10020000E2670D94EF050D94D9080D94D9030D9470
:100210007D580D945D080C94C6ED0D9423480C9404
:1002200075970D941B670D945D770D9427480D9479
:1002300051040D9423020C94A9970D94245B0C9403
:1002400072F50D9415480C946FF70C948FF50D947E
:10025000485B0D949F770D9485730D9434480C94EE
:1002600014EE0C9465990C94A99A0D94525B0D941C
:100270007F5B0D94065B0D945A480C94B6980C94D1
:10028000B0990D9469070C946D9A0D941B480D94C8
:10029000345B0D94034B0D943E480D9428020D944D
:1002A00062160D944C480C947CF50C940B9A0D94AA
:1002B00065660D941F480D94FA050C946BF10D942E
:1002C000CA730C94CE9A0D94A3610C9482F50D948C
:1002D00042480D943B440C944F9A0C94CEEE0C94EF
:1002E0001AF90C94767C0C9489980C9486F10D94F0
:1002F000A44C0D94B84D0D94F95A0D94895B0D944E
:10030000314D0C94B9790D9450480D942A480D94B0
:10031000CA0A0D9448480D9430480C94BEF50D94CB
:10032000ED060D94B74B0D9405060D94AD770D9425
:100330002D020D94F34B0C94BA790D94C3634E4186
:100340004E494E495459494E46CDCCCC3D0AD7234F
:100350003C17B7D13877CC2B329595E6241FB14F97
:100360000A000020410000C84200401C4620BCBEDC
:100370004CCA1B0E5AAEC59D7400407A10F35A0049
:10038000A0724E18090010A5D4E80000E8764817BE
:100390000000E40B54020000CA9A3B000000E1F5A3
:1003A00005000080969800000040420F000000A069
:1003B0008601000000102700000000E80300000094
:1003C000006400000000000A0000000000010000BE
:1003D0000000002C76D888DC674F0823DFC1DFAE31
:1003E00059E1B1B796E5E3E453C63AE651997696FA
:1003F000E8E6C28426EB898C9B62ED407C6FFCEFC3
:10040000BC9C9F40F2BAA56FA5F490055A2AF75CF0
:10041000936B6CF9676DC11BFCE0E40D47FEF520A2
:10042000E6B500D0ED902E0300943577050080846A
:100430001E080000204E0A000000C80C333333337E
:100440000F986E12831141EF8D2114893BE65516EA
:10045000CFFEE6DB18D1844B381BF77C1D901DA422
:10046000BBE424203284725E228100C9F124ECA115
:10047000E53D274C4556454C494E4700434F4D4DB1
:10048000554E49434154494F4E0044525952554EDE
:10049000004552524F525300494E464F0045434883
:1004A0004F002569730025696D2025697300256952
:1004B000682025696D2025697300256964202569F8
:1004C000682025696D2025697300256979202569D3
:1004D00064202569682025696D20256973002C201A
:1004E000002C2000203A2073796E635F706C616E7F
:1004F0005F706F736974696F6E0A00202063757294
:1005000072656E745F706F736974696F6E3D0065BC
:100510006E7175657565696E672022004B494C4C9C
:1005200045442E200053544F505045442E20005037
:1005300072696E7465722073746F70706564206484
:10054000756520746F206572726F72732E20466914
:100550007820746865206572726F7220616E642005
:10056000757365204D39393920746F207265737445
:100570006172742E202854656D7065726174757295
:10058000652069732072657365742E20536574202D
:100590006974206166746572207265737461727427
:1005A000696E67290A004E6F20436865636B737537
:1005B0006D2077697468206C696E65206E756D6258
:1005C00065722C204C617374204C696E653A200072
:1005D0004E6F20436865636B73756D20776974682F
:1005E000206C696E65206E756D6265722C204C61A1
:1005F0007374204C696E653A2000636865636B73A1
:10060000756D206D69736D617463682C204C617326
:1006100074204C696E653A20004C696E65204E75F9
:100620006D626572206973206E6F74204C61737403
:10063000204C696E65204E756D6265722B312C20E1
:100640004C617374204C696E653A20004D31313035
:10065000004D3331002F2F616374696F6E3A666904
:100660006E6973680A005344207265616420657284
:10067000726F720A00446F6E65207072696E7469E1
:100680006E672066696C650A0020496E76616C6948
:100690006420657874727564657220000000000043
:1006A00000000000000000000000D2420000F04204
:1006B0000000C8420A20736F66745F656E647374CD
:1006C0006F705F6D6178203D20000A20736F667443
:1006D0005F656E6473746F705F6D696E203D20009E
:1006E0000A20706F736974696F6E5F7368696674EE
:1006F000203D200020617869733A0A20686F6D659B
:100700005F6F6666736574203D2000466F7220003F
:100710003C3C3C20646F5F626C6F636B696E675F2B
:100720006D6F76655F746F0A003E3E3E20646F5FBA
:10073000626C6F636B696E675F6D6F76655F746F18
:1007400000203A2073657475705F666F725F656E26
:100750006473746F705F6F725F70726F62655F6DEC
:100760006F76650A00202063757272656E745F7023
:100770006F736974696F6E3D00203A20636C656128
:100780006E5F75705F61667465725F656E647374C9
:100790006F705F6F725F70726F62655F6D6F7665AD
:1007A0000A00202063757272656E745F706F7369E2
:1007B00074696F6E3D00646F5F70726F62655F7227
:1007C0006169736528006465706C6F793A20002058
:1007D0003A207365745F70726F62655F6465706CF8
:1007E0006F7965640A00202063757272656E745FAC
:1007F000706F736974696F6E3D00203A203C3C3C19
:1008000020646F5F70726F62655F6D6F76650A005E
:10081000202063757272656E745F706F736974699E
:100820006F6E3D00203A203E3E3E20646F5F707246
:100830006F62655F6D6F76650A0020206375727266
:10084000656E745F706F736974696F6E3D00726579
:100850007365745F6265645F6C6576656C0A0048F9
:100860006F6D696E67206661696C656400000000E9
:100870000000000000BBBCBD9F9E00000000000007
:100880000000000000000000000000457272657565
:1008900072206465207265746F757200000000003C
:1008A00000486F6D696E672067657363686569747A
:1008B00065727400000000686F6D696E6720666184
:1008C0006C6C6F00000000000000000000486F6DBD
:1008D000652066616C6C69746F00000000000000A8
:1008E000000000486F6D696E67206661696C656421
:1008F000000000000000000000486F6D696E672076
:1009000066616C686F750000000000000000004820
:100910006F6D696E67206973206D69736C756B7498
:100920000000000000486F6D696E672062617361AE
:10093000726973697A206F6C6475008FE520D0D17D
:10094000EC20BEF5000000000000000000000000E8
:1009500000D0BDD0B520D183D0B4D0B0D0BBD0BEF4
:10096000D181D18C0000003C3C3C20646F5F686FFB
:100970006D696E675F6D6F766528005B00290A0000
:100980002C20002C20003E3E3E20646F5F686F6D7F
:10099000696E675F6D6F76652800202864697361F2
:1009A000626C6564290A00205A0020590041424CBB
:1009B0002041646A7573746D656E74205800202838
:1009C000656E61626C6564290A0033504F494E546C
:1009D000004175746F20426564204C6576656C69D2
:1009E0006E673A200020262053616D65205A2061F1
:1009F0007300204E6F7A7A6C65290A002026204108
:100A0000626F76650020262042656C6F7700202893
:100A1000416C69676E6564205769746800205A3AB2
:100A20000020593A0050726F6265204F6666736508
:100A30007420583A004649585F4D4F554E5445442E
:100A40005F50524F42450A0050726F62653A200073
:100A500043617274657369616E0A004D6163686910
:100A60006E6520547970653A20003C3C3C2047324A
:100A7000390A00203A2047323920636F7272656369
:100A80007465642058595A0A002020637572726593
:100A90006E745F706F736974696F6E3D00202044DF
:100AA000697363726570616E63793A0020204D61ED
:100AB000747269783A005A2066726F6D2050726FB6
:100AC00062653A00203A2047323920756E636F72B2
:100AD0007265637465642058595A0A002020637552
:100AE0007272656E745F706F736974696F6E3D00CA
:100AF0000A0A426564204C6576656C20436F727209
:100B0000656374696F6E204D61747269783A002074
:100B10003A203E2070726F62696E6720636F6D705D
:100B20006C6574650A00202063757272656E745F6F
:100B3000706F736974696F6E3D003E20332D706F66
:100B4000696E74204C6576656C696E670A002028B2
:100B500044525952554E2900473239204175746F1D
:100B600020426564204C6576656C696E67003F289D
:100B700056296572626F7365206C6576656C2069B5
:100B80007320696D706C61757369626C65202830C3
:100B90002D34292E0A003C3C3C204732390A003EC5
:100BA000204175746F2D6C6576656C206E6F7420B6
:100BB0006E65656465642C20736B69700A00203A69
:100BC000203E3E3E204732390A0020206375727273
:100BD000656E745F706F736974696F6E3D00486F06
:100BE00074656E6420746F6F20636F6C640A0043D9
:100BF000616E6E6F74206F70656E207375626469CC
:100C000072200050726F7465637465642050696E61
:100C10000A005374616E6461726420446576696190
:100C200074696F6E3A20002052616E67653A200049
:100C3000204D61783A2000204D696E3A20004D65C4
:100C4000616E3A200046696E6973686564210A0026
:100C50002072616E67653A2000206D61783A20004D
:100C6000206D696E3A2000207369676D613A20003B
:100C7000206D65616E3A20003A207A3A2000206F9C
:100C8000662000205A00205900205800476F696EE6
:100C90006720746F3A00436C6F636B776973650A02
:100CA00000436F756E7465722D0020446972656330
:100CB00074696F6E3A2000202020616E676C653A7F
:100CC00020005374617274696E6720726164697583
:100CD000733A2000506F736974696F6E696E672094
:100CE0007468652070726F62652E2E2E0A003F4E6A
:100CF000756D626572206F66206C65677320696E22
:100D0000206D6F76656D656E74206E6F7420706CEB
:100D100061757369626C652028302D3135292E0A82
:100D2000003F2028582C5929206F7574206F6620A9
:100D3000626F756E64732E0A003F53616D706C654F
:100D40002073697A65206E6F7420706C61757369A9
:100D5000626C652028342D3530292E0A004D343838
:100D6000205A2D50726F6265205265706561746102
:100D700062696C69747920546573740A003F28565F
:100D8000296572626F7365206C6576656C20697386
:100D900020696D706C61757369626C652028302DF7
:100DA00034292E0A0046696C616D656E7420757376
:100DB00065643A200053746174733A20002C204C0F
:100DC0006F6E67657374206A6F623A2000546F74A7
:100DD000616C2074696D653A200053746174733AD4
:100DE00020002C204661696C65643A20002C204666
:100DF000696E69736865643A20005072696E747335
:100E00003A200053746174733A200020573A00432B
:100E10006F6F6C696E672E2E2E00000000000000C0
:100E2000000000000000000000436F6F6C696E67F7
:100E30002E2E2E0000000000000000000000000028
:100E4000000000436F6F6C696E672E2E2E0000004D
:100E500000000000000000000000000000436F6F71
:100E60006C696E672E2E2E0000000000000000004E
:100E700000000000000000436F6F6C696E672E2E4B
:100E80002E00000000000000000000000000000034
:100E900000436F6F6C696E672E2E2E0000000000FD
:100EA0000000000000000000000000436F6F6C694C
:100EB0006E672E2E2E0000000000000000000000D3
:100EC0000000000000436F6F6C696E672E2E2E00CD
:100ED00000000000000000000000000000000043CF
:100EE0006F6F6C696E672E2E2E00000000000000F0
:100EF000000000000000000000436F6F6C696E6727
:100F00002E2E2E0000000000000000000000000057
:100F1000000000436F6F6C696E672E2E2E0000007C
:100F200000000000000000000000000000436F6FA0
:100F30006C696E672E2E2E0000000000000000007D
:100F40000000000000000048656174696E672E2E85
:100F50002E00000000000000000000486561746978
:100F60006E672E2E2E0000000000000000000048DA
:100F7000656174696E672E2E2E000000000000006F
:100F800000000048656174696E672E2E2E00000017
:100F90000000000000000048656174696E672E2E35
:100FA0002E00000000000000000000486561746928
:100FB0006E672E2E2E00000000000000000000488A
:100FC000656174696E672E2E2E000000000000001F
:100FD00000000048656174696E672E2E2E000000C7
:100FE0000000000000000048656174696E672E2EE5
:100FF0002E000000000000000000004865617469D8
:101000006E672E2E2E000000000000000000004839
:10101000656174696E672E2E2E00000000000000CE
:1010200000000048656174696E672E2E2E00000076
:1010300000000000000000205A3A0020593A002029
:10104000436F756E7420583A0020453A00205A3A92
:101050000020593A00583A00205A00205900580000
:1010600020204D61783A2000205A00205900580075
:1010700020204D696E3A20004F6E20004F666600BA
:10108000536F667420656E6473746F70733A2000DA
:10109000496E76616C6964206578747275646572F6
:1010A0000A0020643A0020693A0020703A00236464
:1010B0006566696E652044454641554C545F4B64F6
:1010C000200023646566696E652044454641554CA1
:1010D000545F4B69200023646566696E6520444552
:1010E0004641554C545F4B70200050494420417597
:1010F000746F74756E652066696E697368656421C6
:101100002050757420746865206C617374204B7076
:101110002C204B6920616E64204B6420636F6E73DA
:1011200074616E74732066726F6D2062656C6F7788
:1011300020696E746F20436F6E66696775726174A3
:10114000696F6E2E680A00504944204175746F74AF
:10115000756E65206661696C6564212074696D65D2
:101160006F75740A00453120544845524D414C205A
:1011700052554E4157415900546865726D616C205B
:1011800052756E61776179004531204865617469F7
:101190006E67206661696C65640048656174696E9C
:1011A00067206661696C656400504944204175742C
:1011B0006F74756E65206661696C65642120546585
:1011C0006D706572617475726520746F6F206869E7
:1011D00067680A00204B643A2000204B693A2000DF
:1011E000204B703A20000A20436C617373696320BE
:1011F000504944200A002054753A2000204B753A8B
:101200002000206D61783A2000206D696E3A200040
:1012100020643A200020626961733A2000504944FA
:10122000204175746F74756E652073746172740AF1
:1012300000504944204175746F74756E6520666175
:10124000696C6564212042616420657874727564FC
:101250006572206E756D6265720A00496E73657203
:10126000742066696C616D656E7420616E642070B7
:101270007265737320627574746F6E0A00507265C4
:10128000737320627574746F6E20746F206865616B
:1012900074206E6F7A7A6C650A00496E7365727499
:1012A0002066696C616D656E7420616E6420707279
:1012B00065737320627574746F6E20286F72204D91
:1012C000313038290A00536C6565702E2E2E003C93
:1012D0003C3C204732380A003E20686F6D696E67DB
:1012E000206E6F74206E65656465642C20736B6975
:1012F000700A003C3C3C204732380A005261697356
:1013000065205A20286265666F726520686F6D6976
:101310006E672920746F20003E20656E6473746FC1
:1013200070732E656E61626C652874727565290A2A
:10133000003E3E3E204732380A00205A3A20002024
:10134000593A200042656420583A20005761697478
:1013500020666F7220757365722E2E2E004E6F20E0
:101360006D6F76652E00456E642066696C65206C35
:101370006973740A00426567696E2066696C65204E
:101380006C6973740A002F2F616374696F6E3A730E
:10139000746172740A004D313235004375727265A2
:1013A0006E742066696C653A20005072696E742014
:1013B00074696D653A20006F6666009D049804911B
:1013C000048A047C04730444454255473A004B495F
:1013D0004C4C45442E20004D3131332053006F6B6F
:1013E0000054494E4132204F66662E002C20002CBE
:1013F00020004649524D574152455F4E414D453AB6
:101400004D61726C696E204649524D574152455F9D
:1014100056455253494F4E3A322E31362E302048DF
:10142000415244574152455F56455253494F4E3AF7
:10143000332E30204D414348494E455F5459504565
:101440003A54494E41322045585452554445525F12
:10145000434F554E543A310A002F2F20004D31345E
:101460003520533C696E6465783E206F7574206F3B
:10147000662072616E67652028302D31290A0020B0
:101480005400205200416363656C65726174696F3A
:101490006E3A2050004F66667365747320617070F9
:1014A0006C696564004572723A20546F6F20666102
:1014B000722100546F6F206661722066726F6D201A
:1014C0007265666572656E636520706F696E740A19
:1014D0000020466C6F773A200000011A1C18FF02AA
:1014E000FFFFFF3C3D3828FFFFFFFF2E303E121369
:1014F000FFFFFFFFFF0C0804FFFFFF363726FFFF4B
:10150000FF08440A094350726F6265205A204F66F3
:10151000667365743A200043290A0061626C656451
:1015200020286D696E2074656D702000436F6C64B7
:101530002065787472756465732061726520004E51
:101540006F2063617365206C696768740A00426587
:1015500064204C6576656C696E6720004661696C35
:10156000656420746F20656E61626C6520426564FD
:10157000204C6576656C696E670A00426564204C94
:101580006576656C20436F7272656374696F6E2057
:101590004D61747269783A00454550524F4D204F65
:1015A0004B0A003F5A206F7574206F662072616E7F
:1015B000676520282D323020746F203230290A00D0
:1015C0003A200050726F6265205A204F666673653C
:1015D000740041637469766520457874727564653A
:1015E000723A2000496E76616C6964206578747285
:1015F000756465720A003C3C3C2067636F64655FFC
:10160000540A00203A2041465445520A00202063E3
:10161000757272656E745F706F736974696F6E3D19
:1016200000203A204245464F52450A00202063756B
:101630007272656E745F706F736974696F6E3D006E
:101640003E3E3E2067636F64655F542800526573B9
:10165000656E643A20006F6B0020746F6F206C6FB2
:101660006E6720657874727573696F6E207072652D
:1016700076656E7465640A0020636F6C642065781B
:1016800074727573696F6E2070726576656E7465BD
:10169000640A00627573793A20706175736564201D
:1016A000666F7220696E7075740A00627573793A9C
:1016B0002070617573656420666F72207573657242
:1016C0000A00627573793A2070726F63657373698B
:1016D0006E670A004B494C4C45442E20004B494C48
:1016E0004C2063617573656420627920746F6F208C
:1016F0006D75636820696E616374697665207469CD
:101700006D65202D2063757272656E7420636F6D38
:101710006D616E643A2000506F72206661766F7260
:101720002C207265696E69636965005052494E5498
:1017300045522048414C544544005072696E7465CE
:10174000722068616C7465642E206B696C6C28294A
:101750002063616C6C6564210A000000D2420000C5
:1017600000000000C8423C3C3C207365745F617817
:1017700069735F69735F61745F686F6D65280020CE
:101780003A200A00202063757272656E745F706F74
:10179000736974696F6E3D005D203D20003E2068D6
:1017A0006F6D655F6F66667365745B003E3E3E20DD
:1017B0007365745F617869735F69735F61745F6893
:1017C0006F6D6528000000484200004842555505ED
:1017D00041000000005761726E696E673A20486FE1
:1017E0006D696E672042756D702044697669736F0C
:1017F00072203C20310A000202040000A0400000D8
:10180000A040000000400000D2420000F042000072
:10181000C8423C3C3C20686F6D6561786973280064
:10182000203A203E204146544552207365745F6142
:101830007869735F69735F61745F686F6D650A00D3
:10184000202063757272656E745F706F736974695E
:101850006F6E3D00486F6D65203220536C6F773A94
:101860000A004D6F766520417761793A0A00486F2A
:101870006D65203120466173743A0A0001FF013E14
:101880003E3E20686F6D656178697328004D363083
:10189000303A20546F6F20636F6C6400486F74653A
:1018A0006E6420746F6F20636F6C640A00496E73FE
:1018B0006572742066696C616D656E7420616E641A
:1018C00020707265737320627574746F6E20286F58
:1018D00072204D313038290A007C3C3E5E2B3D3F62
:1018E0002F5B5D3B2C2A225C005754434D443A57F2
:1018F00049464944454641554C540A0020505744F6
:101900003A00535349443A005754434D443A4A4FDE
:10191000494E2000204D50657263656E743A002078
:101920004D54696D653A00204D46696C653A004D2D
:101930005374617475733A002F2F616374696F6E0D
:101940003A63616E63656C0A004D3331004D313886
:10195000005072696E7420706175736564000000D8
:10196000000000000000000000000000000000CAAD
:10197000F3F1F20000000000000000000000000091
:1019800000000000000000000000000000496D7031
:1019900072696D6572206D697320656E2070617566
:1019A0007365000000000000000000447275636B66
:1019B000207061757369657274000000000000009A
:1019C000000000000000000000506175736172208B
:1019D000696D70726573696F6E0000000000000031
:1019E000000000000000005374616D706120736F8F
:1019F00073706573610000000000000000000000CB
:101A000000000000005072696E742070617573658B
:101A10006400000000000000000000000000000062
:101A2000000000496D7072696D6972207061757394
:101A300061646F0000000000000000000000000072
:101A4000005072696E74206F6E64657262726F6BA3
:101A5000656E000000000000000000000000004271
:101A600061736B6920647572616B6C6174696C641D
:101A700069000000000000000000000000EB9E2054
:101A8000D7BDE0E6000000000000000000000000FC
:101A90000000000000000000000000D09FD0B5D181
:101AA00087D0B0D182D18C20D0BDD0B020D0BFD0D3
:101AB000B0D183D0B7D0B500004D3132350050726F
:101AC000696E74696E672E2E2E0000000000000003
:101AD0000000CAF32E2E2E000000000000000000BF
:101AE000000000000000496D7072657373696F6ECD
:101AF0002E2E2E00000000000000447275636B65FE
:101B00006E2E2E2E00000000000000000000496D27
:101B100070726573696F6E2E2E2E0000000000003B
:101B200000005374616D70612E2E2E0000000000C5
:101B30000000000000005072696E74696E672E2EFE
:101B40002E000000000000000000496D70726573F7
:101B500073616F2E2E2E00000000000000006865EB
:101B600074206472756B6B656E202E2E2E00000043
:101B700000004261736B692E2E2E000000000000F1
:101B8000000000000000EB9E20E42E2E2E0000003E
:101B900000000000000000000000D09FD0B5D187F9
:101BA000D0B0D182D18C2E2E2E00000000000D0A64
:101BB00000434845434B46494C4553495A453A0032
:101BC00057726974696E6720746F2066696C653A34
:101BD00020006F70656E206661696C65642C20461C
:101BE000696C653A20002066696C653A2000617076
:101BF00070656E64004E6F772000446973636F6E8A
:101C00006E6563746564004D313034205330004D8F
:101C1000373032205430004D31303420543020538E
:101C2000323130004D313034205330004D373031B7
:101C3000205430004D313034205430205332313074
:101C400000537061726B4F6E65204F66666C696EF3
:101C50006500537061726B4F6E65204F6E6C696EDC
:101C60006500257568253032756D00253032756840
:101C7000253032756D002575642530327568253044
:101C800032756D00446973636F6E6E65637465646D
:101C9000004C4E3A257320533A256C6400564E3A58
:101CA000257320483A257320463A257320413A256A
:101CB0007320573A257320473A25730053463A2537
:101CC0007320503A256420423A2573005454303A28
:101CD00025642054313A256420423A256420433A51
:101CE000256400005EBCE2613FDD83C29C7E20A3D0
:101CF000FD1F419DC3217FFCA2401E5F01E3BD3E4D
:101D00006082DC237D9FC1421CFEA0E1BF5D038099
:101D1000DE3C62BEE0025CDF81633D7C22C09E1D32
:101D200043A1FF4618FAA427799BC584DA3866E5F3
:101D3000BB5907DB856739BAE406581947A5FB7814
:101D400026C49A653BD987045AB8E6A7F91B45C64D
:101D5000987A24F8A6441A99C7257B3A6486D85BFA
:101D600005E7B98CD2306EEDB3510F4E10F2AC2FA7
:101D70007193CD114FADF3702ECC92D38D6F31B2E4
:101D8000EC0E50AFF1134DCE90722C6D33D18F0C01
:101D900052B0EE326C8ED0530DEFB1F0AE4C1291CA
:101DA000CF2D73CA947628ABF517490856B4EA6963
:101DB00037D58B5709EBB536688AD495CB2977F49C
:101DC000AA4816E9B7550B88D6346A2B7597C94AC5
:101DD00014F6A8742AC896154BA9F7B6E80A54D782
:101DE000896B354572726F722077726974696E679C
:101DF00020746F20454550524F4D210A00454550F3
:101E0000524F4D206461746173697A652065727206
:101E10006F722E0A00290A002062797465733B20D4
:101E2000637263200053657474696E677320537422
:101E30006F726564202800290A0020627974657336
:101E40003B2063726320002073746F72656420739B
:101E5000657474696E6773207265747269657665FE
:101E600064202800202863616C63756C617465646C
:101E700029210A0020213D2000454550524F4D2088
:101E8000435243206D69736D61746368202D20286F
:101E900073746F7265642920002053697A653A2053
:101EA00000496E6465783A2000204D61726C696E5D
:101EB0003D563536290A0028454550524F4D3D00C4
:101EC000454550524F4D2076657273696F6E206D97
:101ED00069736D61746368200070012C01900127A3
:101EE00001B0012201C0011D01F00118011002130F
:101EF0000130020E016002090190020401C002FFDC
:101F0000000003FA004003F5008003F000D003EB6B
:101F1000002004E6007004E100E004DC004005D786
:101F200000C005D2004006CD00D006C8008007C31F
:101F3000003008BE00F008B900C009B400B00AAF14
:101F400000B00BAA00D00CA500000EA000500F9B03
:101F500000C01096005012910000148C00C015872C
:101F600000B0178200B0197D00D01B7800001E73EE
:101F70000040206E0090226900F024640040275F3A
:101F80000090295A00E02B5500102E500020304BB5
:101F90000010324600E033410090353C00103737E6
:101FA0000070383200A0392D00B03A2800A03B2341
:101FB00000603C1E00103D1900903D1400103E0FC3
:101FC00000703E0A00C03E0500003F0000403FFB9D
:101FD000FF803FF6FFC03FF1FF48617264636F64AA
:101FE00065642044656661756C742053657474691A
:101FF0006E6773204C6F616465640A00B80B000063
:10200000B80B00006400000040060000000096438A
:1020100000009643000020410000C8410000C84273
:102020000000C8420000C8430000B4423A0A002041
:10203000286D6D290020204D3630332000205500BA
:102040004C0046696C616D656E74206C6F61642F25
:10205000756E6C6F6164206C656E677468733A0AA4
:102060000020204D383531205A005A2D50726F62B1
:1020700065204F6666736574002044002049002087
:10208000204D333031205000504944207365747422
:10209000696E67733A0A002046002042002048001B
:1020A00020204D3134352053004D617465726961D3
:1020B0006C2068656174757020706172616D657403
:1020C0006572733A0A0020204D34323020530041AB
:1020D00075746F20426564204C6576656C696E6727
:1020E0003A0A00205A0020590020204D3230362074
:1020F0005800486F6D65206F66667365743A0A0014
:10210000204500205A00205900205800205400206B
:10211000530020204D32303520510020453C6D6168
:10212000785F655F6A65726B3E0020583C6D617830
:102130005F785F6A65726B3E20593C6D61785F79AC
:102140005F6A65726B3E205A3C6D61785F7A5F6AA8
:1021500065726B3E00416476616E6365643A20513E
:102160003C6D696E5F7365676D656E745F74696DF4
:10217000655F75733E20533C6D696E5F666565648F
:10218000726174653E20543C6D696E5F7472617655
:10219000656C5F66656564726174653E002054001D
:1021A00020520020204D32303420500041636365BE
:1021B0006C65726174696F6E2028756E6974732F17
:1021C0007332293A20503C7072696E745F616363A8
:1021D000656C3E20523C726574726163745F61632A
:1021E00063656C3E20543C74726176656C5F61631C
:1021F00063656C3E0A00204500205A0020590020EB
:10220000204D3230312058004D6178696D756D2058
:10221000416363656C65726174696F6E2028756EC9
:102220006974732F7332293A0A00204500205A003E
:1022300020590020204D3230332058004D617869FC
:102240006D756D20666565647261746573202875AF
:102250006E6974732F73293A0A00204500205A00D2
:1022600020590020204D3932205800537465707376
:102270002070657220756E69743A0A0020204D3214
:1022800030302044300A0020204D323030204400CD
:102290002044697361626C65640A0046696C616D13
:1022A000656E742073657474696E67733A002020DC
:1022B0004D3134392043203B20556E6974732069B9
:1022C0006E2043656C736975730A002020473231B4
:1022D000202020203B0054524947474552454400A6
:1022E0006F70656E003A20007A5F6D6178007A5FEA
:1022F0006D696E00795F6D696E00785F6D61780061
:102300005265706F7274696E6720656E6473746F66
:1023100070207374617475730A0020746F6F206C81
:102320006F6E6720657874727573696F6E20707256
:102330006576656E7465640A0020636F6C64206561
:102340007874727573696F6E2070726576656E74DD
:1023500065640A0024F4D43050C38E20C2A2401712
:10236000828B7011127A910D816CD90AA861E108F3
:10237000C7586607615143061E4B5D05C145A7045A
:102380001A411104093D9803713931034036DB02CB
:1023900065339102D4305402802E1D02632CEE016D
:1023A000752AC501B028A001102781018F2564017D
:1023B0002B244B01E0223401AC211F018D200D01A3
:1023C000801FFC00841EED00971DDF00B81CD200AA
:1023D000E61BC600201BBC00641AB200B219A8009C
:1023E0000A19A0006A189900D117910040178B00B4
:1023F000B516840031167E00B31579003A157300C6
:10240000C7146F0058146A00EE1366008813630047
:1024100025135E00C7125B006C12570015125400A2
:10242000C111510070114F0021114B00D61049000D
:102430008D1047004610440002104200C00F4000BB
:10244000800F3E00420F3C00060F3B00CB0E3800D1
:10245000930E37005C0E3500270E3400F30D32006A
:10246000C10D3100900D3000600D2E00320D2D0099
:10247000050D2C00D90C2B00AE0C2900850C290071
:102480005C0C2700350C27000E0C2600E80B2400FE
:10249000C40B2400A00B23007D0B23005A0B21004A
:1024A000390B2100180B2000F80A1F00D90A1E0062
:1024B000BB0A1E009D0A1D00800A1D00630A1C0045
:1024C000470A1B002C0A1B00110A1A00F7091A0000
:1024D000DD091900C4091900AB0919009209170098
:1024E0007B091800630917004C091600360916000D
:1024F000200916000A091500F5081500E008140067
:10250000CC081400B8081400A408140090081300A4
:102510007D0812006B0813005808120046081200CC
:1025200034081100230811001208110001081100DD
:10253000F0071000E0071000D0071000C0071000DF
:10254000B0070F00A107100091070E0083070F00CE
:1025500074070F0065070E0057070E0049070E00AD
:102560003B070D002E070E0020070D0013070D007E
:1025700006070D00F9060C00ED060D00E0060C0044
:10258000D4060C00C8060C00BC060C00B0060C00FB
:10259000A4060B0099060C008D060B0082060B00AA
:1025A00077060B006C060B0061060A0057060B004D
:1025B0004C060A0042060A0038060A002E060A00E7
:1025C00024060A001A060A001006090007060A0077
:1025D000FD050900F4050900EB050900E205090005
:1025E000D9050900D0050900C7050900BE05090085
:1025F000B5050800AD050800A50509009C05080003
:10260000940508008C050800840508007C05080076
:10261000740508006C050700650508005D050700E6
:10262000560508004E05070047050700400508004D
:1026300038050700310507002A05070023050700B4
:102640001C050600160507000F0507000805060013
:1026500002050700FB040600F5040700EE0406006F
:10266000E8040600E2040700DB040600D5040600C7
:10267000CF040600C9040600C3040600BD0406001A
:10268000B7040600B1040500AC040600A604060069
:10269000A00405009B0406009504050090040600B4
:1026A0008A04050085040500800406007A040500FC
:1026B00075040500700405006B0405006604050040
:1026C000610405005C040500570405005204050080
:1026D0004D04050048040500430405003E040400C1
:1026E0003A04050035040500300404002C040500FC
:1026F00027040400230405001E0404001A04040037
:1027000016040500110404000D040400090405006A
:102710000404040000040400FC030400F8030400A3
:10272000F4030400F0030400EC030400E8030400D5
:10273000E4030400E0030400DC030400D803040005
:10274000D4030400D0030400CC030400C803030036
:10275000C503030024F404D9201BC40C5C0E9804A8
:10276000C4095F0265077101F405F900FB04B300B9
:1027700048048700C103690058035500030345005E
:10278000BE023A008402310053022A0029022500C9
:1027900004022000E4011C00C8011900AF01170069
:1027A00098011400840113007101100061011000F0
:1027B00051010E0043010D0036010B002B010B00EF
:1027C00020010B00150109000C010900030108009C
:1027D000FB000800F3000800EB000700E40006001F
:1027E000DE000600D8000600D2000600CC0005007E
:1027F000C7000500C2000500BD000400B9000400C8
:10280000B5000400B1000400AD000400A9000400FC
:10281000A5000300A20003009F0004009B0003002A
:10282000980003009500020093000300900003004D
:102830008D0002008B000300880002008600020069
:1028400084000300810002007F0002007D0002007E
:102850007B00020079000200770001007600020090
:102860007400020072000100710002006F0002009B
:102870006D0001006C0002006A00010069000200A6
:1028800067000100660001006500010064000200AD
:102890006200010061000100600001005F000200B1
:1028A0005D0001005C0001005B0001005A000100B6
:1028B00059000100580001005700010056000100B6
:1028C00055000100540001005300000053000100B6
:1028D0005200010051000100500001004F000100B2
:1028E0004E0000004E0001004D0001004C000100B0
:1028F0004B0000004B0001004A00010049000100AC
:1029000048000000480001004700010046000000A8
:1029100046000100450000004500010044000100A0
:10292000430000004300010042000000420001009B
:102930004100000041000100400001003F00000094
:102940003F0001003E0000003E0001003D0000008D
:102950003D0001003C0000003C0000003C00010084
:102960003B0000003B0001003A0000003A0001007B
:102970003900000039000100380000003800000074
:102980003800010037000000370001003600000069
:102990003600000036000100350000003500000060
:1029A0003500010034000000340000003400010054
:1029B000330000003300000033000100320000004B
:1029C0003200000032000100310000003100000040
:1029D0003100010030000000300000003000010034
:1029E0002F0000002F0000002F0000002F0001002A
:1029F0002E0000002E0000002E0001002D0000001F
:102A00002D0000002D0000002D0001002C00000012
:102A10002C0000002C0000002C0001002B00000006
:102A20002B0000002B0000002B0001002A000000FA
:102A30002A0000002A0000002A00010029000000EE
:102A400029000000290000002900000029000100E1
:102A500028000000280000002800000028000000D6
:102A600028000100270000002700000027000000C8
:102A700027000000270001002600000026000000BB
:102A800026000000260000002600010025000000AE
:102A900025000000250000002500000025000000A2
:102AA0002500010024000000240000002400000094
:102AB0002400000024000100230000002300000087
:102AC000230000002300000023000000230000007A
:102AD000230001002200000022000000220000006C
:102AE000220000002200000022000100210000005E
:102AF0002100000021000000210000002100000052
:102B00002100000021000100200000002000000042
:102B10002000000020000000200000002000000035
:102B200020000000200001001F0000001F00000026
:102B30001F0000001F0000001F0000001F00000019
:102B40001F0001001E0000001E0000001E0000000B
:102B50001E000000043700001E290000511B000069
:102B60005810000010090000CC040000780200009A
:102B70004101000009FFFFFFFFFF0001010101010A
:102B8000453120544845524D414C2052554E4157F5
:102B9000415900546865726D616C2052756E6177A1
:102BA00061790045312048656174696E672066610E
:102BB000696C65640048656174696E672066616967
:102BC0006C6564004531204572723A204D4158547D
:102BD000454D50004D415854454D50207472696721
:102BE0006765726564004531204572723A204D492F
:102BF0004E54454D50004D494E54454D5020747231
:102C000069676765726564004D3834205820592023
:102C10005A204500202F0020403A00FFE0FFD1104D
:102C200000FFFEFFD0FFE0FFC1FFD1E240A0C8A639
:102C3000A32FF800238127AC00AFFF64A5FF64FF3A
:102C400064A4FFD0FFFE4D6F76696E672E2E2E00B6
:102C50000000000000000000000000C1B22E2E2E77
:102C60000000000000000000000000000000000064
:102C70004465706C6163656D656E742E2E2E000068
:102C80000000000000496E204265776567756E6739
:102C90002E2E2E000000000000004D6F7669656E3C
:102CA000646F2E2E2E00000000000000000000497E
:102CB0006E206D6F76696D656E746F2E2E2E00001E
:102CC00000000000B2C4DEB3C1ADB30000000000DC
:102CD0000000000000000000004D6F7665722D734B
:102CE00065202E2E2E00000000000000000056651A
:102CF00072706C61617473656E2E2E2E0000000080
:102D00000000004B6F6E756D6C616E69796F722E8D
:102D10002E2E000000000000D4972E2E2E00000062
:102D200000000000000000000000000000D094D06F
:102D3000B2D0B8D0B6D0B5D0BCD181D18F2E2E2E86
:102D40000000202020202020005A005900202020B0
:102D5000200058002003000320000920000000008C
:102D60000000000000000000007FFFE00000000FF6
:102D7000E7CC10203C0000007000E00000000101E2
:102D80000A105042000000630C60000000010109BD
:102D9000105002000000470E2000000001010890C2
:102DA00088020000004F0F200000000101089088F9
:102DB0000C0000005F0FA00000000101089104302A
:102DC0000000005E07A07F800001010851FC400068
:102DD0000000406020FFC0000101083202400000F6
:102DE0000040F020FFC0000107C812027E00000072
:102DF00040F020FFC0000000000000000000004084
:102E000060207F80000000000000000000005E07DE
:102E1000A07F8000E3878F1C89F3E780005F0FA00D
:102E2000FFC00012444888C8420440004F0F20FFF2
:102E3000C00012244888A842044000470E20FFC06A
:102E40000062278F08A843E78000630C603F000002
:102E500012240A08A8420500007000E01E000012BB
:102E600044090898420480007FFFE00C0000E384DE
:102E7000089C8843E44000000000000000000000BF
:102E80000000000000007FFFE00000000FE7CC1012
:102E9000203C0000007000E000000001010A10501A
:102EA0004200000061F860000000010109105002BA
:102EB00000000041F8200000000101089088020095
:102EC000000040F02000000001010890880C000084
:102ED0000040602000000001010891043000000063
:102EE0005801A07F800001010851FC400000005CF7
:102EF00063A0FFC0000101083202400000005EF73D
:102F0000A0FFC0000107C812027E0000005EF7A00B
:102F1000FFC0000000000000000000005C63A07F14
:102F200080000000000000000000005801A07F8029
:102F300000E3878F1C89F3E78000406020FFC0001A
:102F400012444888C84204400040F020FFC00012EC
:102F5000244888A84204400041F820FFC0006227AE
:102F60008F08A843E7800061F8603F000012240A40
:102F700008A8420500007000E01E00001244090885
:102F800098420480007FFFE00C0000E384089C88E6
:102F900043E440000000002052656164792E000087
:102FA0000000000000000000000000A4A5A6A7008B
:102FB00000000000000000000000000000000020F1
:102FC00050726574652E00000000000000000000D3
:102FD0000000002042657265697400000000000076
:102FE00000000000000000206C6973746F2E000068
:102FF00000000000000000000000002070726F6EF2
:10300000746F2E000000000000000000000000208F
:1030100072656164792E000000000000000000006D
:103020000000002070726F6E74612E0000000000BE
:1030300000000000000000206765726565642E00D6
:1030400000000000000000000000002068617AC459
:10305000B1722E00000000000000000000000020FF
:1030600052656164792E000000000000000000003D
:1030700000000020D0B3D0BED182D0BED0B22E008E
:10308000000000000000005072696E74696E672EC7
:103090002E2E000000000000000000CAF32E2E2E8D
:1030A00000000000000000000000000000000049D7
:1030B0006D7072657373696F6E2E2E2E00000000A6
:1030C000000000447275636B656E2E2E2E000000AA
:1030D00000000000000000496D70726573696F6E3A
:1030E0002E2E2E00000000000000005374616D7051
:1030F000612E2E2E00000000000000000000005095
:1031000072696E74696E672E2E2E0000000000003A
:10311000000000496D7072657373616F2E2E2E0072
:1031200000000000000000686574206472756B6B1D
:10313000656E202E2E2E00000000004261736B6928
:103140002E2E2E000000000000000000000000EB0A
:103150009E20E42E2E2E0000000000000000000043
:10316000000000D09FD0B5D187D0B0D182D18C2EB5
:103170002E2E00000000005072696E742070617580
:103180007365640000000000000000000000000003
:103190000000000000CAF3F1F2000000000000008F
:1031A000000000000000000000000000000000001F
:1031B000000000496D7072696D6572206D69732041
:1031C000656E2070617573650000000000000000EE
:1031D00000447275636B2070617573696572740069
:1031E000000000000000000000000000000000508F
:1031F000617573617220696D70726573696F6E00BD
:103200000000000000000000000000000053746196
:103210006D706120736F7370657361000000000052
:1032200000000000000000000000005072696E7491
:1032300020706175736564000000000000000000EC
:10324000000000000000000000496D7072696D69A7
:1032500072207061757361646F00000000000000EF
:10326000000000000000005072696E74206F6E64F0
:10327000657262726F6B656E0000000000000000F6
:1032800000000000004261736B6920647572616B1D
:103290006C6174696C64690000000000000000004B
:1032A000000000EB9E20D7BDE0E60000000000001B
:1032B000000000000000000000000000000000000E
:1032C00000D09FD0B5D187D0B0D182D18C20D0BDD5
:1032D000D0B020D0BFD0B0D183D0B7D0B50000CA15
:1032E000F3F2F6004732382052302058205900506F
:1032F0006F776572204C6F7373205265636F7665CC
:1033000072790000000000000000000000E7E8CA39
:10331000F3000000000000000000000000000000BA
:10332000000000000000000000000052656375709E
:103330002E20646573207065727465730000000050
:1033400000000000000000000057696564657268B5
:1033500065727374656C6C756E6700000000000028
:1033600000000000000000526563757065726163C3
:10337000696F6E20656E657267696100000000000C
:103380000000000000526563757065726F000000F8
:10339000000000000000000000000000000000002D
:1033A000000000506F776572204C6F737320526578
:1033B000636F766572790000000000000000000075
:1033C000005265746F6D6172206120726563757063
:1033D00065726163616F000000000000000000483A
:1033E00065727374656C207374726F6F6D7665723D
:1033F0006C69657300000000000000000047756301
:10340000204B617962C4B1204B75727461726D6139
:103410000000000000000000000000B0D00000002C
:10342000000000000000000000000000000000009C
:10343000000000000000000000D0B2D0BED181D159
:1034400081D182D0B0D0BDD0BED0B2D0BBD0B5D0AB
:10345000BDD0B8D0B500004D313235004D3234000A
:103460002F2F616374696F6E3A70617573650A001E
:103470002F2F616374696F6E3A726573756D650A9B
:10348000004D31303420543020533231300D0A4D4C
:10349000373032205430004D3130342054302053F6
:1034A0003231300D0A4D37303120543000546573BD
:1034B00074696E67204D656E75004E6F2053442011
:1034C0006361726400000000000000000000000062
:1034D000F9A800000000000000000000000000004B
:1034E000000000000000417563756E652063617225
:1034F0007465205344000000000000004B65696EB5
:10350000652053442D4B617274650000000000007B
:1035100000004E6F20686179207461726A65746181
:1035200020534400000000005344206E6F6E207052
:10353000726573656E7465000000000000005344FE
:10354000B6B0C4DEB6DEB1D8CFBEDD0000000000EC
:103550000000000053656D2063617274616F205339
:10356000440000000000000000004765656E205325
:1035700044206B61617274000000000000000000D4
:103580005344204B61727420596F6B00000000009F
:103590000000000000005344ED998320C5BC9192C7
:1035A0002E0000000000000000000000D09DD0B5FB
:1035B000D18220534420D0BAD0B0D180D182D18BD7
:1035C000000053746F70207072696E740000000008
:1035D00000000000000000000000000000000000EB
:1035E0000000000000F2F6CAF30000000000000036
:1035F00000000000000000000000000000000000CB
:103600000000000000000000417272657420696DC6
:103610007072657373696F6E000000000000000037
:10362000000000000000000000000053442D447220
:1036300075636B2041626272756368000000000070
:1036400000000000000000000000000000004465D1
:1036500074656E657220696D70726573696F6E0056
:10366000000000000000000000000000000000005A
:103670000041727265737461207374616D706100D2
:10368000000000000000000000000000000000003A
:1036900000000000CCDFD8DDC4C3B2BC00000000D5
:1036A000000000000000000000000000000000001A
:1036B00000000000000000506172617220696D70AE
:1036C00072657373616F000000000000000000006D
:1036D000000000000000000000005072696E7420BD
:1036E00073746F7070656E000000000000000000D1
:1036F000000000000000000000000000004475729F
:10370000647572000000000000000000000000006E
:1037100000000000000000000000000000000000A9
:10372000EB9E20E4E6000000000000000000000026
:103730000000000000000000000000000000000089
:10374000000000D09ED181D182D0B0D0BDD0BED0FB
:10375000B2D0B8D182D18C20D0BFD0B5D187D0B073
:10376000D182D18C00004D3130342054302053327E
:1037700031300D0A4D373032205430004D31303465
:1037800020543020533231300D0A4D37303120541F
:103790003000526573756D65207072696E7400003B
:1037A0000000000000000000000000000000000019
:1037B0000000000000F4F5CAF30000000000000063
:1037C00000000000000000000000000000000000F9
:1037D000000000000000000052657072656E6472A7
:1037E0006520696D7072657373696F6E000000000B
:1037F000000000000000000000000053442D44724F
:1038000075636B20466F72747365747A756E6700AA
:1038100000000000000000000000000000005265F1
:10382000746F6D617220696D70726573696F6E007F
:103830000000000000000000000000000000000088
:103840000052697072656E6469207374616D706195
:103850000000000000000000000000000000000068
:1038600000000000CCDFD8DDC4BBB2B6B20000005F
:103870000000000000000000000000000000000048
:10388000000000000000005265746F6D61722069D5
:103890006D7072657373616F0000000000000000BE
:1038A000000000000000000000005072696E7420EB
:1038B00068657276617474656E0000000000000037
:1038C00000000000000000000000000000537572BE
:1038D000647572000000000000000000000000009D
:1038E00000000000000000000000000000000000D8
:1038F000EB9E20DD840000000000000000000000BE
:1039000000000000000000000000000000000000B7
:10391000000000D09FD180D0BED0B4D0BED0BBD0EC
:10392000B6D0B8D182D18C20D0BFD0B5D187D0B09D
:10393000D182D18C00005061757365207072696E00
:10394000740000000000000000000000000000F112
:10395000F2CAF300000000000000000000000000B8
:103960000000000000000000506175736520696D63
:103970007072657373696F6E0000000000000000D4
:103980000053442D447275636B205061757365005C
:1039900000000000000000000000506175736172BB
:1039A00020696D70726573696F6E00000000000021
:1039B000000000506175736100000000000000000D
:1039C000000000000000000000000000B2C1BCDEEA
:1039D000C3B2BC00000000000000000000000000B6
:1039E000000000000050617573617220696D707293
:1039F000657373616F0000000000000000005072EA
:103A0000696E74207061757A6572656E00000000E1
:103A100000000000000000447572616B6C6174006E
:103A20000000000000000000000000000000000096
:103A3000EB9E20D7BDE4E60000000000000000007F
:103A4000000000000000000000D09FD0B0D183D063
:103A5000B7D0B020D0BFD0B5D187D0B0D182D0B848
:103A6000000054756E6500000000000000000000BA
:103A7000000000000000CFF0000000000000000087
:103A8000000000000000000000005265676C6572D5
:103A900000000000000000000000000000004A7567
:103AA0007374696572756E670000000000000000A5
:103AB0000000416A7573746172000000000000002C
:103AC0000000000000005265676F6C61000000009C
:103AD00000000000000000000000C1AEB3BEB20054
:103AE000000000000000000000000000000041662F
:103AF000696E61720000000000000000000000001C
:103B0000000041667374656C6C656E000000000017
:103B10000000000000004179617200000000000018
:103B200000000000000000000000E2E000000000D3
:103B30000000000000000000000000000000D09D18
:103B4000D0B0D181D182D180D0BED0B8D182D18C39
:103B50000000496E666F2073637265656E00000039
:103B60000000000000000000000000000000000055
:103B70000000000000000000000000ECEDEEEF008F
:103B80000000000000000000000000000000000035
:103B90000000000000000000000000000000000025
:103BA00000000000456372616E20696E666F7300ED
:103BB0000000000000000000000000000000000005
:103BC00000000000000000000000000000496E66D8
:103BD0006F00000000000000000000000000000076
:103BE00000000000000000000000000000000000D5
:103BF00000000000000050616E74616C6C6120690F
:103C00006E666F726D6163696F6E00000000000088
:103C1000000000000000000000000000000000475D
:103C20007561726461000000000000000000000087
:103C30000000000000000000000000000000000084
:103C40000000000000000000BCDEAEB3CEB3B6DE64
:103C5000D2DD0000000000000000000000000000B5
:103C60000000000000000000000000000000000054
:103C7000004D6F6E69746F72697A617200000000A6
:103C80000000000000000000000000000000000034
:103C900000000000000000000000496E666F207305
:103CA000636865726D000000000000000000000005
:103CB0000000000000000000000000000000000004
:103CC00000000042696C676920456B72616E690093
:103CD00000000000000000000000000000000000E4
:103CE000000000000000000000000000B4EE20E032
:103CF000AF00000000000000000000000000000015
:103D000000000000000000000000000000000000B3
:103D10000000000000D098D0BDD184D0BED180D0AA
:103D2000BCD0B0D186D0B8D0BED0BDD0BDD18BD0A4
:103D3000B920D18DD0BAD180D0B0D0BD0000466CB2
:103D40006F770000000000000000CCADD1D2000071
:103D5000000000000000436F756C657200000000F9
:103D60000000466C75737372617465000000466CE8
:103D7000756A6F00000000000000466C7573736F79
:103D8000000000000000C4BCADC2D8AEB30000000B
:103D90000000466C75786F00000000000000466C63
:103DA0006F770000000000000000416B69730000A5
:103DB000000000000000C0EB20BA960000000000E8
:103DC0000000D09FD0BED182D0BED0BA00004661E4
:103DD0006E20737065656400000000000000000044
:103DE000D5D6D1D200000000000000000000000085
:103DF0000000566974657373652076656E74696C2E
:103E0000000000004C756674657200000000000040
:103E100000000000000056656E74696C61646F728A
:103E2000000000000000000056656C6F636974615B
:103E30002076656E746F6C610000CCA7DDBFB8C4DE
:103E4000DE000000000000000000000056656C2E3F
:103E50002076656E746F696E6861000000004661CF
:103E60006E20736E656C6865696400000000000078
:103E700046616E2048697A69000000000000000079
:103E80000000F620BA9600000000000000000000CC
:103E900000000000D09AD183D0BBD0B5D180000003
:103EA0000000000000005370656564000000000021
:103EB0000000000000000000D1D20000000000005F
:103EC000000000000000000000004C6120766974D2
:103ED00065737365000000000000000047657363B0
:103EE00068772E000000000000000000000056650A
:103EF0006C6F6369646164000000000000000000F2
:103F000056656C6F6369746100000000000000007A
:103F10000000BFB8C4DE0000000000000000000088
:103F20000000000056656C6F6369646164650000A1
:103F3000000000000000536E656C68656964000055
:103F4000000000000000000048697A000000000046
:103F500000000000000000000000BA960000000011
:103F6000000000000000000000000000D0A1D0BA56
:103F7000D0BED180D0BED181D182D18C0000576912
:103F80007A61726400000000000000000000000080
:103F9000000000000000A2A3EEEF000000000000FF
:103FA00000000000000000000000000000004C6164
:103FB0006E636572206C6120636F6E6669672E00A8
:103FC0000000000000004D6167696572000000009C
:103FD0000000000000000000000000000000576921
:103FE0007A7A6172640000000000000000000000A6
:103FF00000000000000070726F63656475726120DC
:104000006775696461746100000000000000B3B46A
:10401000B9B6000000000000000000000000000031
:104020000000000000005573616E646F206F206116
:104030007373697374656E746500000000004465F5
:104040002077697A617264206765627275696B6551
:104050006E0000000000536968697262617AC4B141
:10406000206B756C6C616E6D610000000000A0EF4C
:10407000BBBFABB200000000000000000000000069
:10408000000000000000D0BAD0BED0BBD0B4D183B5
:10409000D0BD0000000000000000000000004469E6
:1040A0007361626C65207374657070657273000073
:1040B000000000000000000000000000B5B6B7B826
:1040C000B9BA00000000000000000000000000007D
:1040D000000000000000000000004465736163748C
:1040E0006976206C652070617320612070617300B7
:1040F00000000000000000004D6F746F72656E20BC
:104100006465616B746976696572656E00000000B4
:10411000000000000000417061676172206D6F74E3
:104120006F726573000000000000000000000000D6
:10413000000000004469736162696C697461204D1C
:104140006F746F7269000000000000000000000042
:104150000000D3B0C0B0C3DEDDB9DEDD20B5CC00D9
:10416000000000000000000000000000000000004F
:1041700044657361637469766172206D6F746F72E8
:1041800065730000000000000000000000004D6F9B
:10419000746F72656E207569740000000000000085
:1041A0000000000000000000000000004D6F746F70
:1041B000726C61726920447572647572000000004F
:1041C00000000000000000000000A0F020E4E60075
:1041D00000000000000000000000000000000000DF
:1041E0000000000000000000D092D18BD0BAD0BBFC
:1041F0002E20D0B4D0B2D0B8D0B3D0B0D182D0B508
:10420000D0BBD0B800004D3834004C6576656C20CA
:104210006265640000000000000000000000000073
:104220000000000000000000000000B1B2CFD0008C
:10423000000000000000000000000000000000007E
:104240000000000000000000000000004D697365E0
:104250002061206E69766561750000000000000035
:104260000000000000000000000000000042657433
:1042700074206E6976656C6C696572656E0000000D
:1042800000000000000000000000000000004E6977
:1042900076656C617220706C617461666F726D61BD
:1042A0000000000000000000000000000000004CC2
:1042B0006976656C6C61207069616E6F000000004A
:1042C00000000000000000000000000000000000EE
:1042D000CDDEAFC4DEDACDDED8DDB8DE0000000012
:1042E00000000000000000000000000000000000CE
:1042F0000043616D61206E6976656C6164610000E8
:1043000000000000000000000000000000000000AD
:1043100000004C6576656C2062656400000000005A
:10432000000000000000000000000000000000008D
:104330000000005365766979652079617461676969
:10434000000000000000000000000000000000006D
:1043500000000000CAF19DAD000000000000000058
:10436000000000000000000000000000000000004D
:104370000000000000D09AD0B0D0BBD0B8D0B1D1EE
:1043800080D0BED0B2D0B0D182D18C20D181D182A8
:10439000D0BED0BB0000473238205A2046353030DE
:1043A0000D0A473238205820592046313030300A23
:1043B000473239004175746F20686F6D65000000E9
:1043C000000000000000000000000000000000BB32
:1043D000BCBD000000000000000000000000000064
:1043E000000000000000000000005265746F75724C
:1043F000206F726967696E650000000000000000B0
:104400000000000000486F6D650000000000000023
:10441000000000000000000000000000000000009C
:104420004175746F20496E6963696F000000000078
:1044300000000000000000000000004175746F20C3
:10444000486F6D65000000000000000000000000E3
:10445000000000000000B9DEDDC3DDCCAFB7000016
:10446000000000000000000000000000000000004C
:104470000049722070617261206F726967656D001A
:104480000000000000000000000000004175746F93
:1044900020686F6D65000000000000000000000053
:1044A00000000000000000456B73656E6C6572696A
:1044B0002053696669726C61000000000000000012
:1044C0000000D0D1EC00000000000000000000005F
:1044D00000000000000000000000000000D090D0AC
:1044E000B2D182D0BE20D0BFD0B0D180D0BAD0BEA1
:1044F000D0B2D0BAD0B00000473238205A2046356A
:1045000030300D0A4732382058205920463130309B
:10451000300D0A4731205835352059353520463180
:10452000303030004D31303420543020533231306F
:104530000D0A4D3730322054300D0A4D31303420C1
:104540005330004D31303420543020533231300D4F
:104550000A4D3730312054300D0A4D31303420535C
:1045600030004D6F766520302E316D6D00000000FB
:10457000000000000000000000000000C1B2203078
:104580002E316D6D000000000000000000000000F2
:104590000000000000004465706C616365722030AB
:1045A0002E316D6D000000000000000000000000D2
:1045B000302E316D6D000000000000000000000092
:1045C000000000000000000000004D6F76657220C2
:1045D000302E316D6D000000000000000000000072
:1045E000000000004D756F766920646920302E311F
:1045F0006D6D000000000000000000000000302E83
:10460000316D6D20B2C4DEB3000000000000000078
:1046100000000000000000004D6F76657220302E13
:10462000316D6D000000000000000000000000007F
:104630000000566572706C6161747320302E316DAC
:104640006D0000000000000000000000302E316D01
:104650006D000000000000000000000000000000ED
:10466000000000000000302E316D6D20D497000056
:10467000000000000000000000000000000000003A
:10468000D094D0B2D0B8D0B6D0B5D0BDD0B8D0B517
:1046900020302E31D0BCD0BC00004D6F766520316B
:1046A0006D6D000000000000000000000000000030
:1046B0000000C1B220316D6D00000000000000005C
:1046C000000000000000000000004465706C6163A1
:1046D000657220316D6D00000000000000000000D8
:1046E0000000316D6D0000000000000000000000BF
:1046F000000000000000000000004D6F7665722091
:10470000316D6D000000000000000000000000009E
:1047100000004D756F7669206469202020316D6D31
:10472000000000000000000000002020316D6D201E
:10473000B2C4DEB300000000000000000000000072
:1047400000004D6F76657220316D6D000000000035
:1047500000000000000000000000566572706C61EF
:1047600061747320316D6D000000000000000000D6
:104770000000316D6D00000000000000000000002E
:1047800000000000000000000000316D6D20D49793
:104790000000000000000000000000000000000019
:1047A0000000D094D0B2D0B8D0B6D0B5D0BDD0B87B
:1047B000D0B52031D0BCD0BC00004D6F7665203123
:1047C000306D6D00000000000000000000000000DF
:1047D000000000C1B22031306D6D0000000000000B
:1047E0000000000000000000000000004465706C44
:1047F00061636572203130206D6D000000000000A3
:10480000000000000031306D6D000000000000006D
:1048100000000000000000000000000000004D6FDC
:104820007665722031306D6D0000000000000000E0
:10483000000000000000004D756F7669206469205B
:104840002031306D6D00000000000000000000000D
:104850002031306D6D20B2C4DEB3000000000000D6
:104860000000000000000000004D6F7665722031EE
:10487000306D6D000000000000000000000000002E
:104880000000566572706C616174732031306D6D1B
:10489000000000000000000000000031306D6D00DD
:1048A0000000000000000000000000000000000008
:1048B0000000000031306D6D20D497000000000032
:1048C00000000000000000000000000000D094D0B4
:1048D000B2D0B8D0B6D0B5D0BDD0B8D0B520313078
:1048E000D0BCD0BC00004D6F766520617869730044
:1048F00000000000000000000000000000000000B8
:10490000000000000000C1B2CE0000000000000066
:104910000000000000000000000000000000000097
:104920000000000000004465706C61636572206CDB
:104930002761786500000000000000000000000012
:104940000000000000004265776567656E000000AA
:104950000000000000000000000000000000000057
:104960000000000000004D6F76657220656A657377
:104970000000000000000000000000000000000037
:104980000000000000004D756F766920417373656B
:104990000000000000000000000000000000000017
:1049A000000000000000BCDEB8B2C4DEB3000000AE
:1049B00000000000000000000000000000000000F7
:1049C0000000000000004D6F766572206569786F09
:1049D00000000000000000000000000000000000D7
:1049E000000000000000417320766572706C616108
:1049F0007473656E000000000000000000000000FD
:104A0000000000000000456B73656E20596F6E65F5
:104A10007400000000000000000000000000000022
:104A2000000000000000EA20D49700000000000011
:104A30000000000000000000000000000000000076
:104A4000000000000000D094D0B2D0B8D0B6D0B5ED
:104A5000D0BDD0B8D0B520D0BFD0BE20D0BED1817F
:104A6000D18FD0BC00004578747275646572000007
:104A700000000000000000000000CCADBA00000003
:104A80000000000000000000000000000000457869
:104A9000747275646575720000000000000000000B
:104AA00000004578747275646572000000000000B3
:104AB0000000000000004578747275736F7200008A
:104AC0000000000000000000000045737472757360
:104AD0006F72650000000000000000000000B4B824
:104AE000BDC4D9B0C0DEB00000000000000000006E
:104AF00000004D6F766572204578747275736F7221
:104B00000000000000004578747275646572000052
:104B100000000000000000000000456B7374727517
:104B20006465720000000000000000000000D5BBBA
:104B3000F2A094000000000000000000000000004F
:104B40000000D0ADD0BAD181D182D180D183D0B490
:104B5000D0B5D18000004D6F7665205A000000006E
:104B6000000000000000000000000000000000C184
:104B7000B2205A0000000000000000000000000009
:104B800000000000000000004465706C6163657205
:104B9000205A00000000000000000000000000009B
:104BA0000056657273636869656265205A0000008B
:104BB000000000000000000000004D6F76657220CC
:104BC0005A0000000000000000000000000000008B
:104BD0000000004D756F7669205A0000000000004B
:104BE0000000000000000000000000005ABCDEB819
:104BF00020B2C4DEB300000000000000000000008E
:104C000000000000004D6F766572205A0000000021
:104C100000000000000000000000000000005665D9
:104C200072706C61617473205A0000000000000013
:104C3000000000000000005A00000000000000001A
:104C40000000000000000000000000000000000064
:104C50005AEA20D497000000000000000000000085
:104C6000000000000000000000D094D0B2D0B8D006
:104C7000B6D0B5D0BDD0B8D0B520D0BFD0BE205AA8
:104C800000004D6F76652059000000000000000014
:104C90000000000000000000000000C1B220590028
:104CA0000000000000000000000000000000000004
:104CB000000000004465706C61636572205900005B
:104CC00000000000000000000000000000566572B7
:104CD0007363686965626520590000000000000088
:104CE0000000000000004D6F766572205900000042
:104CF0000000000000000000000000000000004D67
:104D0000756F766920590000000000000000000067
:104D1000000000000000000059BCDEB820B2C4DE74
:104D2000B3000000000000000000000000000000D0
:104D3000004D6F76657220590000000000000000F1
:104D400000000000000000000000566572706C61F9
:104D50006174732059000000000000000000000092
:104D600000000059000000000000000000000000EA
:104D700000000000000000000000000059EA20D4FC
:104D8000970000000000000000000000000000008C
:104D90000000000000D094D0B2D0B8D0B6D0B5D0CA
:104DA000BDD0B8D0B520D0BFD0BE205900004D6FC7
:104DB00076652058000000000000000000000000A0
:104DC00000000000000000C1B220580000000000F8
:104DD00000000000000000000000000000000000D3
:104DE0004465706C6163657220580000000000002B
:104DF00000000000000000000056657273636869DF
:104E000065626520580000000000000000000000FE
:104E100000004D6F76657220580000000000000011
:104E200000000000000000000000004D756F766972
:104E300020580000000000000000000000000000FA
:104E40000000000058BCDEB820B2C4DEB300000091
:104E5000000000000000000000000000004D6F7620
:104E600065722058000000000000000000000000F3
:104E7000000000000000566572706C616174732060
:104E80005800000000000000000000000000005872
:104E90000000000000000000000000000000000012
:104EA000000000000000000058EA20D49700000035
:104EB00000000000000000000000000000000000F2
:104EC00000D094D0B2D0B8D0B6D0B5D0BDD0B8D084
:104ED000B520D0BFD0BE20580000507265706172FE
:104EE000650000000000000000000000000000005D
:104EF0000000A4A5EEEF000000000000000000008C
:104F00000000000000000000000050726570617237
:104F100065720000000000000000000000000000BA
:104F20000000566F72626572656974756E67000085
:104F30000000000000000000000050726570617207
:104F4000617200000000000000000000000000008E
:104F50000000507265706172610000000000000086
:104F600000000000000000000000BCDEADDDCBDE74
:104F7000BEAFC3B20000000000000000000000004F
:104F800000005072657061726172000000000000E4
:104F900000000000000000000000566F6F726265A4
:104FA00072656964656E000000000000000000008A
:104FB000000048617A69726C696B000000000000B3
:104FC00000000000000000000000E3B120DAC4008F
:104FD00000000000000000000000000000000000D1
:104FE0000000D09FD0BED0B4D0B3D0BED182D0BE4E
:104FF000D0B2D0B8D182D18C0000526573746F7278
:10500000652064656661756C740000000000000036
:105010000000000000000000000000000000000090
:10502000E7E8ADE9BEBF000000000000000000009E
:105030000000000000000000000000000000000070
:105040000000000000005265737461757265722083
:105050007061722064656661757400000000000074
:105060000000000000000000000000005374616EAA
:10507000646172647765727465206C6164656E004A
:105080000000000000000000000000000000000020
:10509000000052657374617572617220706F7220C6
:1050A0006465666563746F00000000000000000026
:1050B000000000000000000052697072697374699A
:1050C0006E6120696D702E0000000000000000007D
:1050D0000000000000000000000000000000BEAF63
:1050E000C3B2D8BEAFC40000000000000000000042
:1050F00000000000000000000000000000000000B0
:1051000000000000526573746175726172207061F5
:105110006472616F000000000000000000000000E9
:105120000000000000000000000048657273746514
:105130006C207374616E6461617264000000000031
:10514000000000000000000000000000000000005F
:10515000566172736179696C616E6120646F6E640F
:105160007572000000000000000000000000000058
:10517000000000000000B6E020E88BFC000000000A
:10518000000000000000000000000000000000001F
:10519000000000000000000000000000D092D0BE1F
:1051A000D181D181D182D0B0D0BDD0BED0B2D0B863
:1051B000D182D18C20D0BDD0B0D181D182D1802EEE
:1051C000000057696669204E6574776F726B000046
:1051D000000000000000999ABEBF0000000000001F
:1051E000000000000000000000005265736561755A
:1051F0002057696669000000000000000000576940
:1052000046692D4E65747A7765726B000000000068
:1052100000007265642057696669000000000000A4
:10522000000000000000526574652057696669003F
:105230000000000000000000000057696669204E71
:105240006574776F726B000000000000000052650B
:1052500064652057692D46690000000000000000C9
:10526000000057696669206E65747765726B00008F
:10527000000000000000576966692041676900006E
:105280000000000000000000000057696669204E21
:105290006574776F726B0000000000000000D0A101
:1052A000D0B5D182D18C2057692D4669000000000D
:1052B00000005A204F6666736574205365747469E4
:1052C0006E6700000000BEBF5ACEC0C100000000E3
:1052D000000000000000000000005A204F666673C6
:1052E00065740000000000000000000000005A206B
:1052F0005665727361747A000000000000000000BF
:10530000000044657366617365205A000000000068
:105310000000000000005A204F66667365740000AC
:10532000000000000000000000005AB5CCBEAFC471
:1053300000000000000000000000000000004465C4
:105340007376696F205A0000000000000000000022
:1053500000005A204F66667365740000000000006C
:105360000000000000005A204F666673657400005C
:10537000000000000000000000005A20CCB800002F
:105380000000000000000000000000000000D0A1AC
:10539000D0BCD0B5D189D0B5D0BDD0B8D0B5205A09
:1053A000000054656D70657261747572650000006F
:1053B00000000000000000000000C9D2BEBF0000D5
:1053C00000000000000000000000000000000000DD
:1053D000000054656D70657261747572650000003F
:1053E0000000000000000000000054656D70657250
:1053F00061747572000000000000000000000000F1
:10540000000054656D706572617475726100000012
:105410000000000000000000000054656D7065721F
:10542000617475726100000000000000000000005F
:105430000000B5DDC4DE0000000000000000000038
:105440000000000000000000000054656D706572EF
:10545000617475726100000000000000000000002F
:10546000000054656D70657261747575720000009E
:1054700000000000000000000000536963616B6CD5
:10548000696B000000000000000000000000000048
:105490000000CB96000000000000000000000000AB
:1054A00000000000000000000000D0A2D0B5D0BC79
:1054B000D0BFD0B5D180D0B0D182D183D180D0B08F
:1054C00000004E6F7A7A6C65000000000000D3D4B3
:1054D000000000000000000000004275736500003D
:1054E000000000000000447573650000000000002B
:1054F0000000426F7175696C6C61000000005567B7
:10550000656C6C6F000000000000C9BDDED90000B2
:105510000000000000004269636F0000000000000E
:1055200000004E6F7A7A6C650000000000004E6F3C
:105530007A756C000000000000008FE5000000009C
:10554000000000000000D0A1D0BED0BFD0BBD0BEB4
:10555000000043616E6E6F7420656E746572207317
:1055600075626469723A2000022E2E005052494E34
:1055700054205041555345440000000000000000F5
:1055800000000000000000000000CAF3F1F220203B
:1055900020202000000000000000000000000000AB
:1055A0000000000000000000494D5052494D455296
:1055B0002050415553454400000000000000000009
:1055C000000000000000445255434B205041555309
:1055D0004945525400000000000000000000000097
:1055E00000000000494D50522E2050415553414477
:1055F000410000000000000000000000000000006A
:1056000000005354414D504120494E2050415553C4
:105610004100000000000000000000000000000049
:105620005052494E5420504155534544000000000B
:105630000000000000000000000000000000494DD4
:105640005052494D4952205041555341444F00005A
:10565000000000000000000000000000414644522D
:10566000554B2047455041555A454552440000008E
:105670000000000000000000000059415A44495257
:105680002044555244550000000000000000000076
:105690000000000000000000EB9E20D7BDE4E60003
:1056A00000000000000000000000000000000000FA
:1056B000000000000000D09FD0B5D187D0B0D182CB
:1056C000D18C20D0BDD0B020D0BFD0B0D183D0B746
:1056D000D0B500004175746F2052657472616374B7
:1056E0002046696C616D656E74000000000000006A
:1056F00000000093E492942020202020000000006D
:105700000000000000000000000000000000000099
:105710000000446563686172676572206C6520668D
:10572000696C616D656E740000000000000000008F
:105730000046696C616D656E7420656E746C6164A1
:10574000656E000000000000000000000000000086
:1057500072657472616363696F6E2066696C616DF6
:10576000656E746F00000000000000000000005330
:105770006361726963612046696C616D656E740076
:105780000000000000000000000000000000CCB29B
:10579000D7D2DDC420B1B3C4000000000000000077
:1057A00000000000000000000000000000526574CE
:1057B000726169722046696C616D656E746F00007C
:1057C0000000000000000000000000004175746F40
:1057D00020526574726163742046696C616D656EF8
:1057E000740000000000000000000046696C616D5C
:1057F000656E746920476572692043656B0000001F
:1058000000000000000000000000F79CA0F220E96A
:10581000EB0000000000000000000000000000009D
:10582000000000000000000000D090D0B2D182D073
:10583000BE20D092D182D18FD0B3D0B8D0B2D0B068
:10584000D0BDD0B8D0B500004175746F20466565F5
:10585000642046696C616D656E7400000000000094
:1058600000000000000000000000000000E4AB9217
:1058700094202020202000000000000000000000F4
:105880000000000000000000000000000000000018
:10589000000043686172676572206C652066696C00
:1058A000616D656E740000000000000000000000E3
:1058B0000000000000000046696C616D656E742098
:1058C0006C6164656E0000000000000000000000D4
:1058D000000000000000000000000000656E74720F
:1058E0006164612064652066696C616D656E746FCA
:1058F00000000000000000000000000000000000A8
:10590000004361726963612066696C616D656E74E4
:105910006F00000000000000000000000000000018
:10592000000000000000CCB2D7D2DDC420B2DD0000
:105930000000000000000000000000000000000067
:105940000000000000000000000000416C696D656F
:105950006E74652046696C616D656E7400000000B0
:105960000000000000000000000000000000000037
:105970004175746F20466565642046696C616D658C
:105980006E74000000000000000000000000000035
:10599000000000000059656D2046696C616D656E00
:1059A000746900000000000000000000000000001A
:1059B00000000000000000000000F79CA0F220B3EF
:1059C000D8000000000000000000000000000000FF
:1059D000000000000000000000000000000000D0F7
:1059E00097D0B0D0B3D180D183D0B7D0BAD0B020C7
:1059F000D184D0B8D0BBD0B0D0BCD0B5D0BDD182CE
:105A0000D0B000005075726765206D6F7265000040
:105A10000000000000000000000000000000000086
:105A2000000000E4ABE0E192940000000000000000
:105A30000000000000000000000000000000000066
:105A40000000507572676520706C7573000000006F
:105A50000000000000000000000000000000000046
:105A6000004D65687220656E746C656572656E00C8
:105A70000000000000000000000000000000000026
:105A8000707572676172206D617300000000000024
:105A90000000000000000000000000000000004CBA
:105AA0006962657261206469207069750000000098
:105AB0000000000000000000000000000000507521
:105AC000726765206D6F72650000000000000000C5
:105AD000000000000000000000000000005075728F
