:100000000C9437750C9468750C9468750C9468752D
:100010000C9468750C9468750C9468750C946875EC
:100020000C9468750C9468750C9468750C946875DC
:100030000C9468750D9413540C9468750C94687541
:100040000C9468750D946A120C9468750C9468751C
:100050000C9468750C9468750D94C9040D94C9537B
:100060000C9468750C946AE40C9468750C9468752B
:100070000C9468750C9468750C9468750C9468758C
:100080000C9468750C9468750C9468750C9468757C
:100090000C9468750C9468750C9468750C9468756C
:1000A0000C9468750C9468750C9468750C9468755C
:1000B0000C9468750C9468750C9468750C9468754C
:1000C0000C9468750C9468750C9468750C9468753C
:1000D0000C9468750C9468750C9441E40C946875E4
:1000E0000C94687505A84CCDB2D44EB93836A90227
:1000F0000C50B9918688083CA6AAAA2ABE00000026
:10010000803F0C9449840D94596C0D9410720D9499
:100110004A580C94EFE80D94FA640D941A3F0D942C
:10012000D4710D94403F0D94BD510D94053F0D9435
:10013000B3510D94463F0C94DEE80C9443F90D94B2
:1001400030510D944E510C9408FE0D949F510D9416
:10015000146D0D9472510D940F3F0D94383F0D9412
:10016000E5010C94F4FA0C94FFFC0D948B510C9463
:10017000A8EC0C9415FD0D94453F0D94563B0D9441
:1001800068510C9452F90D942A3F0D944A3F0D94F6
:10019000F66D0D94C93C0D9493230C9478FF0D9447
:1001A000E76A0D943A440C9435F00C949AEC0C9454
:1001B0005BEC0C9448F90C94E0750C94A3EC0D9452
:1001C0003A510D94366D0D94203F0C94E1E40D945A
:1001D0007D0D0D94133F0C943EF90D945E510D94DA
:1001E000A9510D946F6A0D94EF000D94323F0D9458
:1001F0001E720D94733F0C946CFB0D94B3430D94DD
:10020000BC5A0C9455EC0C948DEC0C9484FE0D941B
:100210003B6E0C9485ED0C940AE90C947BF60D94DE
:10022000A36D0C9494EC0D94243F0D940B3F0D940E
:100230005A430D9423510D94F35B0D9495510C94F6
:10024000FFE80D9456510C9486E80D94A95C0D942A
:10025000576B0C94A0EC0C94E3E80C94ADEC0C946C
:100260004DF90C94BEE40C944FEC0C942FE50D94D6
:10027000316C0D94D06C0C940AFD0D94705D0C944F
:10028000F4FF0D9470000C9497EC0D94F3420D94D0
:1002900033420D94ED6C0D949C420D94ED590C94E9
:1002A0001DF60D944B430C94D8F60C949DEC0C94D5
:1002B000FCFE0C947AE80C9420FD0C948AEE0C94CD
:1002C000A1E80D94CD570C94AAEC0C9485770C946E
:1002D00087F30D94366A0D94C66D0D9455080D94F0
:1002E0003C3F0D94836B0D942E3F0D9444510D941F
:1002F000F7410D942B510D94173F0D94766C0D948E
:1003000017720C94D9EC0D94586D0C94E9E50C948B
:10031000F5E80D94CF690D94FD690D94CE710D949F
:100320007A6D0D94B66A0C94DF750D947C514E4134
:100330004E494E495459494E46CDCCCC3D0AD7235F
:100340003C17B7D13877CC2B329595E6241FB14FA7
:100350000A000020410000C84200401C4620BCBEEC
:100360004CCA1B0E5AAEC59D7400407A10F35A0059
:10037000A0724E18090010A5D4E80000E8764817CE
:100380000000E40B54020000CA9A3B000000E1F5B3
:1003900005000080969800000040420F000000A079
:1003A0008601000000102700000000E803000000A4
:1003B000006400000000000A0000000000010000CE
:1003C0000000002C76D888DC674F0823DFC1DFAE41
:1003D00059E1B1B796E5E3E453C63AE6519976960A
:1003E000E8E6C28426EB898C9B62ED407C6FFCEFD3
:1003F000BC9C9F40F2BAA56FA5F490055A2AF75C01
:10040000936B6CF9676DC11BFCE0E40D47FEF520B2
:10041000E6B500D0ED902E0300943577050080847A
:100420001E080000204E0A000000C80C333333338E
:100430000F986E12831141EF8D2114893BE65516FA
:10044000CFFEE6DB18D1844B381BF77C1D901DA432
:10045000BBE424203284725E228100C9F124ECA125
:10046000E53D274C4556454C494E4700434F4D4DC1
:10047000554E49434154494F4E0044525952554EEE
:10048000004552524F525300494E464F0045434893
:100490004F002569730025696D2025697300256962
:1004A000682025696D202569730025696420256908
:1004B000682025696D2025697300256979202569E3
:1004C00064202569682025696D20256973002C202A
:1004D000002C2000203A2073796E635F706C616E8F
:1004E0005F706F736974696F6E0A002020637572A4
:1004F00072656E745F706F736974696F6E3D0065CD
:100500006E7175657565696E672022004B494C4CAC
:1005100045442E200053544F505045442E20005047
:1005200072696E7465722073746F70706564206494
:10053000756520746F206572726F72732E20466924
:100540007820746865206572726F7220616E642015
:10055000757365204D39393920746F207265737455
:100560006172742E202854656D70657261747572A5
:10057000652069732072657365742E20536574203D
:100580006974206166746572207265737461727437
:10059000696E67290A004E6F20436865636B737547
:1005A0006D2077697468206C696E65206E756D6268
:1005B00065722C204C617374204C696E653A200082
:1005C0004E6F20436865636B73756D20776974683F
:1005D000206C696E65206E756D6265722C204C61B1
:1005E0007374204C696E653A2000636865636B73B1
:1005F000756D206D69736D617463682C204C617337
:1006000074204C696E653A20004C696E65204E7509
:100610006D626572206973206E6F74204C61737413
:10062000204C696E65204E756D6265722B312C20F1
:100630004C617374204C696E653A20004D31313045
:10064000004D3331002F2F616374696F6E3A666914
:100650006E6973680A005344207265616420657294
:10066000726F720A00446F6E65207072696E7469F1
:100670006E672066696C650A0020496E76616C6958
:100680006420657874727564657220000000000053
:1006900000000000000000000000D2420000F04214
:1006A0000000C8420A20736F66745F656E647374DD
:1006B0006F705F6D6178203D20000A20736F667453
:1006C0005F656E6473746F705F6D696E203D2000AE
:1006D0000A20706F736974696F6E5F7368696674FE
:1006E000203D200020617869733A0A20686F6D65AB
:1006F0005F6F6666736574203D2000466F72200050
:100700003C3C3C20646F5F626C6F636B696E675F3B
:100710006D6F76655F746F0A003E3E3E20646F5FCA
:10072000626C6F636B696E675F6D6F76655F746F28
:1007300000203A2073657475705F666F725F656E36
:100740006473746F705F6F725F70726F62655F6DFC
:100750006F76650A00202063757272656E745F7033
:100760006F736974696F6E3D00203A20636C656138
:100770006E5F75705F61667465725F656E647374D9
:100780006F705F6F725F70726F62655F6D6F7665BD
:100790000A00202063757272656E745F706F7369F2
:1007A00074696F6E3D00646F5F70726F62655F7237
:1007B0006169736528006465706C6F793A20002068
:1007C0003A207365745F70726F62655F6465706C08
:1007D0006F7965640A00202063757272656E745FBC
:1007E000706F736974696F6E3D00203A203C3C3C29
:1007F00020646F5F70726F62655F6D6F76650A006F
:10080000202063757272656E745F706F73697469AE
:100810006F6E3D00203A203E3E3E20646F5F707256
:100820006F62655F6D6F76650A0020206375727276
:10083000656E745F706F736974696F6E3D00726589
:100840007365745F6265645F6C6576656C0A004809
:100850006F6D696E67206661696C656400000000F9
:100860000000000000BBBCBD9F9E00000000000017
:100870000000000000000000000000457272657575
:1008800072206465207265746F757200000000004C
:1008900000486F6D696E672067657363686569748A
:1008A00065727400000000686F6D696E6720666194
:1008B0006C6C6F00000000000000000000486F6DCD
:1008C000652066616C6C69746F00000000000000B8
:1008D000000000486F6D696E67206661696C656431
:1008E000000000000000000000486F6D696E672086
:1008F00066616C686F750000000000000000004831
:100900006F6D696E67206973206D69736C756B74A8
:100910000000000000486F6D696E672062617361BE
:10092000726973697A206F6C6475008FE520D0D18D
:10093000EC20BEF5000000000000000000000000F8
:1009400000D0BDD0B520D183D0B4D0B0D0BBD0BE04
:10095000D181D18C0000003C3C3C20646F5F686F0B
:100960006D696E675F6D6F766528005B00290A0010
:100970002C20002C20003E3E3E20646F5F686F6D8F
:10098000696E675F6D6F7665280020286469736102
:10099000626C6564290A00205A0020590041424CCB
:1009A0002041646A7573746D656E74205800202848
:1009B000656E61626C6564290A0033504F494E547C
:1009C000004175746F20426564204C6576656C69E2
:1009D0006E673A200020262053616D65205A206101
:1009E0007300204E6F7A7A6C65290A002026204118
:1009F000626F76650020262042656C6F77002028A4
:100A0000416C69676E6564205769746800205A3AC2
:100A10000020593A0050726F6265204F6666736518
:100A20007420583A004649585F4D4F554E5445443E
:100A30005F50524F42450A0050726F62653A200083
:100A400043617274657369616E0A004D6163686920
:100A50006E6520547970653A20003C3C3C2047325A
:100A6000390A00203A2047323920636F7272656379
:100A70007465642058595A0A0020206375727265A3
:100A80006E745F706F736974696F6E3D00202044EF
:100A9000697363726570616E63793A0020204D61FD
:100AA000747269783A005A2066726F6D2050726FC6
:100AB00062653A00203A2047323920756E636F72C2
:100AC0007265637465642058595A0A002020637562
:100AD0007272656E745F706F736974696F6E3D00DA
:100AE0000A0A426564204C6576656C20436F727219
:100AF000656374696F6E204D61747269783A002085
:100B00003A203E2070726F62696E6720636F6D706D
:100B10006C6574650A00202063757272656E745F7F
:100B2000706F736974696F6E3D003E20332D706F76
:100B3000696E74204C6576656C696E670A002028C2
:100B400044525952554E2900473239204175746F2D
:100B500020426564204C6576656C696E67003F28AD
:100B600056296572626F7365206C6576656C2069C5
:100B70007320696D706C61757369626C65202830D3
:100B80002D34292E0A003C3C3C204732390A003ED5
:100B9000204175746F2D6C6576656C206E6F7420C6
:100BA0006E65656465642C20736B69700A00203A79
:100BB000203E3E3E204732390A0020206375727283
:100BC000656E745F706F736974696F6E3D00486F16
:100BD00074656E6420746F6F20636F6C640A0043E9
:100BE000616E6E6F74206F70656E207375626469DC
:100BF00072200050726F7465637465642050696E72
:100C00000A005374616E64617264204465766961A0
:100C100074696F6E3A20002052616E67653A200059
:100C2000204D61783A2000204D696E3A20004D65D4
:100C3000616E3A200046696E6973686564210A0036
:100C40002072616E67653A2000206D61783A20005D
:100C5000206D696E3A2000207369676D613A20004B
:100C6000206D65616E3A20003A207A3A2000206FAC
:100C7000662000205A00205900205800476F696EF6
:100C80006720746F3A00436C6F636B776973650A12
:100C900000436F756E7465722D0020446972656340
:100CA00074696F6E3A2000202020616E676C653A8F
:100CB00020005374617274696E6720726164697593
:100CC000733A2000506F736974696F6E696E6720A4
:100CD0007468652070726F62652E2E2E0A003F4E7A
:100CE000756D626572206F66206C65677320696E32
:100CF000206D6F76656D656E74206E6F7420706CFC
:100D000061757369626C652028302D3135292E0A92
:100D1000003F2028582C5929206F7574206F6620B9
:100D2000626F756E64732E0A003F53616D706C655F
:100D30002073697A65206E6F7420706C61757369B9
:100D4000626C652028342D3530292E0A004D343848
:100D5000205A2D50726F6265205265706561746112
:100D600062696C69747920546573740A003F28566F
:100D7000296572626F7365206C6576656C20697396
:100D800020696D706C61757369626C652028302D07
:100D900034292E0A0046696C616D656E7420757386
:100DA00065643A200053746174733A20002C204C1F
:100DB0006F6E67657374206A6F623A2000546F74B7
:100DC000616C2074696D653A200053746174733AE4
:100DD00020002C204661696C65643A20002C204676
:100DE000696E69736865643A20005072696E747345
:100DF0003A200053746174733A200020573A00433C
:100E00006F6F6C696E672E2E2E00000000000000D0
:100E1000000000000000000000436F6F6C696E6707
:100E20002E2E2E0000000000000000000000000038
:100E3000000000436F6F6C696E672E2E2E0000005D
:100E400000000000000000000000000000436F6F81
:100E50006C696E672E2E2E0000000000000000005E
:100E600000000000000000436F6F6C696E672E2E5B
:100E70002E00000000000000000000000000000044
:100E800000436F6F6C696E672E2E2E00000000000D
:100E90000000000000000000000000436F6F6C695C
:100EA0006E672E2E2E0000000000000000000000E3
:100EB0000000000000436F6F6C696E672E2E2E00DD
:100EC00000000000000000000000000000000043DF
:100ED0006F6F6C696E672E2E2E0000000000000000
:100EE000000000000000000000436F6F6C696E6737
:100EF0002E2E2E0000000000000000000000000068
:100F0000000000436F6F6C696E672E2E2E0000008C
:100F100000000000000000000000000000436F6FB0
:100F20006C696E672E2E2E0000000000000000008D
:100F30000000000000000048656174696E672E2E95
:100F40002E00000000000000000000486561746988
:100F50006E672E2E2E0000000000000000000048EA
:100F6000656174696E672E2E2E000000000000007F
:100F700000000048656174696E672E2E2E00000027
:100F80000000000000000048656174696E672E2E45
:100F90002E00000000000000000000486561746938
:100FA0006E672E2E2E00000000000000000000489A
:100FB000656174696E672E2E2E000000000000002F
:100FC00000000048656174696E672E2E2E000000D7
:100FD0000000000000000048656174696E672E2EF5
:100FE0002E000000000000000000004865617469E8
:100FF0006E672E2E2E00000000000000000000484A
:10100000656174696E672E2E2E00000000000000DE
:1010100000000048656174696E672E2E2E00000086
:1010200000000000000000205A3A0020593A002039
:10103000436F756E7420583A0020453A00205A3AA2
:101040000020593A00583A00205A00205900580010
:1010500020204D61783A2000205A00205900580085
:1010600020204D696E3A20004F6E20004F666600CA
:10107000536F667420656E6473746F70733A2000EA
:10108000496E76616C696420657874727564657206
:101090000A0020643A0020693A0020703A00236474
:1010A0006566696E652044454641554C545F4B6406
:1010B000200023646566696E652044454641554CB1
:1010C000545F4B69200023646566696E6520444562
:1010D0004641554C545F4B702000504944204175A7
:1010E000746F74756E652066696E697368656421D6
:1010F0002050757420746865206C617374204B7087
:101100002C204B6920616E64204B6420636F6E73EA
:1011100074616E74732066726F6D2062656C6F7798
:1011200020696E746F20436F6E66696775726174B3
:10113000696F6E2E680A00504944204175746F74BF
:10114000756E65206661696C6564212074696D65E2
:101150006F75740A00453120544845524D414C206A
:1011600052554E4157415900546865726D616C206B
:1011700052756E6177617900453120486561746907
:101180006E67206661696C65640048656174696EAC
:1011900067206661696C656400504944204175743C
:1011A0006F74756E65206661696C65642120546595
:1011B0006D706572617475726520746F6F206869F7
:1011C00067680A00204B643A2000204B693A2000EF
:1011D000204B703A20000A20436C617373696320CE
:1011E000504944200A002054753A2000204B753A9B
:1011F0002000206D61783A2000206D696E3A200051
:1012000020643A200020626961733A20005049440A
:10121000204175746F74756E652073746172740A01
:1012200000504944204175746F74756E6520666185
:10123000696C65642120426164206578747275640C
:101240006572206E756D6265720A00496E73657213
:10125000742066696C616D656E7420616E642070C7
:101260007265737320627574746F6E0A00507265D4
:10127000737320627574746F6E20746F206865617B
:1012800074206E6F7A7A6C650A00496E73657274A9
:101290002066696C616D656E7420616E6420707289
:1012A00065737320627574746F6E20286F72204DA1
:1012B000313038290A00536C6565702E2E2E003CA3
:1012C0003C3C204732380A003E20686F6D696E67EB
:1012D000206E6F74206E65656465642C20736B6985
:1012E000700A003C3C3C204732380A005261697366
:1012F00065205A20286265666F726520686F6D6987
:101300006E672920746F20003E20656E6473746FD1
:1013100070732E656E61626C652874727565290A3A
:10132000003E3E3E204732380A00205A3A20002034
:10133000593A200042656420583A20005761697488
:1013400020666F7220757365722E2E2E004E6F20F0
:101350006D6F76652E00456E642066696C65206C45
:101360006973740A00426567696E2066696C65205E
:101370006C6973740A002F2F616374696F6E3A731E
:10138000746172740A004D313235004375727265B2
:101390006E742066696C653A20005072696E742024
:1013A00074696D653A20006F6666008D048804815B
:1013B000047A046C04630444454255473A004B499F
:1013C0004C4C45442E20004D3131332053006F6B7F
:1013D0000054494E41324241534943204F66662EE4
:1013E000002C20002C20004649524D574152455FA9
:1013F0004E414D453A4D61726C696E204649524DE1
:10140000574152455F56455253494F4E3A322E315D
:10141000362E302048415244574152455F5645527E
:1014200053494F4E3A332E30204D414348494E45A3
:101430005F545950453A54494E4132424153494311
:101440002045585452554445525F434F554E543AE7
:10145000310A002F2F20004D31343520533C696E66
:101460006465783E206F7574206F662072616E67C8
:10147000652028302D31290A0020540020520041D7
:101480006363656C65726174696F6E3A2050004FDA
:10149000666673657473206170706C69656400457D
:1014A00072723A20546F6F206661722100546F6F20
:1014B000206661722066726F6D2072656665726566
:1014C0006E636520706F696E740A0020466C6F77DA
:1014D0003A200000011A1C18FF02FFFFFF3C3D38B4
:1014E00028FFFFFFFF2E303E1213FFFFFFFFFF0C10
:1014F0000804FFFFFF363726FFFFFF08440A0943B1
:1015000050726F6265205A204F66667365743A2088
:101510000043290A0061626C656420286D696E20B1
:1015200074656D702000436F6C642065787472750B
:101530006465732061726520004E6F20636173657E
:10154000206C696768740A00426564204C657665A2
:101550006C696E6720004661696C656420746F2059
:10156000656E61626C6520426564204C6576656CD1
:10157000696E670A00426564204C6576656C20439D
:101580006F7272656374696F6E204D6174726978F1
:101590003A00454550524F4D204F4B0A003F5A20CC
:1015A0006F7574206F662072616E676520282D321A
:1015B0003020746F203230290A003A200050726FB8
:1015C0006265205A204F66667365740041637469D2
:1015D00076652045787472756465723A2000496EAC
:1015E00076616C69642065787472756465720A004E
:1015F0003C3C3C2067636F64655F540A00203A20DE
:1016000041465445520A00202063757272656E741B
:101610005F706F736974696F6E3D00203A204245B8
:10162000464F52450A00202063757272656E745FE2
:10163000706F736974696F6E3D003E3E3E20676354
:101640006F64655F542800526573656E643A2000CC
:101650006F6B0020746F6F206C6F6E6720657874FD
:10166000727573696F6E2070726576656E746564ED
:101670000A0020636F6C6420657874727573696FFB
:101680006E2070726576656E7465640A00627573AB
:10169000793A2070617573656420666F7220696E97
:1016A0007075740A00627573793A2070617573659C
:1016B0006420666F7220757365720A0062757379B3
:1016C0003A2070726F63657373696E670A004B49E5
:1016D0004C4C45442E20004B494C4C2063617573A3
:1016E000656420627920746F6F206D75636820696E
:1016F0006E6163746976652074696D65202D206361
:10170000757272656E7420636F6D6D616E643A20E0
:1017100000506F72206661766F722C207265696E60
:1017200069636965005052494E5445522048414C06
:10173000544544005072696E7465722068616C741F
:1017400065642E206B696C6C28292063616C6C6564
:1017500064210A000000D242000000000000C842DC
:101760003C3C3C207365745F617869735F69735FAB
:1017700061745F686F6D652800203A200A002020A0
:1017800063757272656E745F706F736974696F6E82
:101790003D005D203D20003E20686F6D655F6F66F7
:1017A000667365745B003E3E3E207365745F6178CE
:1017B00069735F69735F61745F686F6D65280000AE
:1017C00000484200004842555505410000000057BE
:1017D00061726E696E673A20486F6D696E6720426C
:1017E000756D702044697669736F72203C20310AF0
:1017F000000202040000A0400000A04000000040E1
:101800000000D2420000F0420000C8423C3C3C20B4
:10181000686F6D65617869732800203A203E204129
:1018200046544552207365745F617869735F6973CC
:101830005F61745F686F6D650A0020206375727266
:10184000656E745F706F736974696F6E3D00486F89
:101850006D65203220536C6F773A0A004D6F7665C4
:1018600020417761793A0A00486F6D652031204642
:101870006173743A0A0001FF013E3E3E20686F6DBD
:10188000656178697328004D3630303A20546F6FA7
:1018900020636F6C6400486F74656E6420746F6FB2
:1018A00020636F6C640A00496E7365727420666908
:1018B0006C616D656E7420616E6420707265737307
:1018C00020627574746F6E20286F72204D3130382D
:1018D000290A007C3C3E5E2B3D3F2F5B5D3B2C2A62
:1018E000225C005754434D443A57494649444546C3
:1018F00041554C540A00205057443A005353494430
:101900003A005754434D443A4A4F494E2000204D27
:1019100050657263656E743A00204D54696D653A86
:1019200000204D46696C653A004D537461747573BF
:101930003A002F2F616374696F6E3A63616E63655D
:101940006C0A004D3331004D3138005072696E74AD
:1019500020706175736564000000000000000000E5
:10196000000000000000000000CAF3F1F2000000D7
:101970000000000000000000000000000000000067
:1019800000000000000000496D7072696D657220F2
:101990006D697320656E20706175736500000000CD
:1019A0000000000000447275636B207061757369FC
:1019B00065727400000000000000000000000000DC
:1019C00000000050617573617220696D70726573FB
:1019D000696F6E00000000000000000000000000C1
:1019E000005374616D706120736F73706573610073
:1019F0000000000000000000000000000000005097
:101A000072696E7420706175736564000000000077
:101A100000000000000000000000000000496D70A0
:101A200072696D6972207061757361646F00000086
:101A300000000000000000000000005072696E7499
:101A4000206F6E64657262726F6B656E00000000DD
:101A50000000000000000000004261736B69206418
:101A60007572616B6C6174696C64690000000000E0
:101A700000000000000000EB9E20D7BDE0E6000063
:101A80000000000000000000000000000000000056
:101A90000000000000D09FD0B5D187D0B0D182D156
:101AA0008C20D0BDD0B020D0BFD0B0D183D0B7D0A3
:101AB000B500004D313235005072696E74696E6741
:101AC0002E2E2E000000000000000000CAF32E2E73
:101AD0002E000000000000000000000000000000D8
:101AE000496D7072657373696F6E2E2E2E00000043
:101AF00000000000447275636B656E2E2E2E000090
:101B00000000000000000000496D70726573696F8D
:101B10006E2E2E2E00000000000000005374616D38
:101B200070612E2E2E00000000000000000000005A
:101B30005072696E74696E672E2E2E0000000000D0
:101B400000000000496D7072657373616F2E2E2E58
:101B50000000000000000000686574206472756B6E
:101B60006B656E202E2E2E00000000004261736B0C
:101B7000692E2E2E00000000000000000000000072
:101B8000EB9E20E42E2E2E0000000000000000003E
:101B900000000000D09FD0B5D187D0B0D182D18CC9
:101BA0002E2E2E00000000000D0A00434845434B36
:101BB00046494C4553495A453A0057726974696E13
:101BC0006720746F2066696C653A20006F70656EDF
:101BD000206661696C65642C2046696C653A20005A
:101BE0002066696C653A2000617070656E64004E15
:101BF0006F772000446973636F6E6E65637465640C
:101C0000004D313034205330004D373032205430C5
:101C1000004D3130342054302053323130004D31BA
:101C20003034205330004D373031205430004D31A6
:101C30003034205430205332313000537061726B95
:101C40004F6E65204F66666C696E650053706172F9
:101C50006B4F6E65204F6E6C696E6500257568254B
:101C60003032756D002530327568253032756D0063
:101C70002575642530327568253032756D004572E2
:101C8000726F722077726974696E6720746F204575
:101C90004550524F4D210A00454550524F4D20644A
:101CA00061746173697A65206572726F722E0A00C1
:101CB000290A002062797465733B206372632000F7
:101CC00053657474696E67732053746F7265642012
:101CD0002800290A002062797465733B20637263CF
:101CE00020002073746F7265642073657474696E6C
:101CF00067732072657472696576656420280020B8
:101D00002863616C63756C6174656429210A002025
:101D1000213D2000454550524F4D20435243206DF8
:101D200069736D61746368202D202873746F726508
:101D3000642920002053697A653A2000496E646561
:101D4000783A2000204D61726C696E3D5635362917
:101D50000A0028454550524F4D3D00454550524FD1
:101D60004D2076657273696F6E206D69736D617455
:101D70006368200070012C0190012701B00122014D
:101D8000C0011D01F00118011002130130020E0103
:101D90006002090190020401C002FF000003FA0082
:101DA0004003F5008003F000D003EB002004E600C0
:101DB0007004E100E004DC004005D700C005D2005B
:101DC0004006CD00D006C8008007C3003008BE0022
:101DD000F008B900C009B400B00AAF00B00BAA0007
:101DE000D00CA500000EA000500F9B00C010960064
:101DF0005012910000148C00C0158700B0178200AB
:101E0000B0197D00D01B7800001E730040206E00CA
:101E100090226900F024640040275F0090295A0056
:101E2000E02B5500102E500020304B0010324600A1
:101E3000E033410090353C001037370070383200F5
:101E4000A0392D00B03A2800A03B2300603C1E00C2
:101E5000103D1900903D1400103E0F00703E0A0026
:101E6000C03E0500003F0000403FFBFF803FF6FF03
:101E7000C03FF1FF48617264636F6465642044652C
:101E80006661756C742053657474696E6773204C59
:101E90006F616465640A00B80B0000B80B00006451
:101EA000000000400600000000964300009643003A
:101EB0000020410000C8410000C8420000C84200A4
:101EC00000C8430000B4423A0A0020286D6D290082
:101ED00020204D36303320002055004C0046696CE0
:101EE000616D656E74206C6F61642F756E6C6F61CF
:101EF00064206C656E677468733A0A0020204D3860
:101F00003531205A005A2D50726F6265204F666637
:101F10007365740020440020490020204D33303187
:101F20002050005049442073657474696E67733A99
:101F30000A0020460020420020480020204D313475
:101F4000352053004D6174657269616C206865616C
:101F500074757020706172616D65746572733A0A90
:101F60000020204D3432302053004175746F2042E0
:101F70006564204C6576656C696E673A0A00205A84
:101F80000020590020204D323036205800486F6D17
:101F900065206F66667365743A0A00204500205A12
:101FA0000020590020580020540020530020204DCC
:101FB00032303520510020453C6D61785F655F6AA5
:101FC00065726B3E0020583C6D61785F785F6A6592
:101FD000726B3E20593C6D61785F795F6A65726B08
:101FE0003E205A3C6D61785F7A5F6A65726B3E0095
:101FF000416476616E6365643A20513C6D696E5F41
:102000007365676D656E745F74696D655F75733E4A
:1020100020533C6D696E5F66656564726174653EF0
:1020200020543C6D696E5F74726176656C5F6665A5
:102030006564726174653E002054002052002020C7
:102040004D323034205000416363656C65726174B9
:10205000696F6E2028756E6974732F7332293A2068
:10206000503C7072696E745F616363656C3E2052B0
:102070003C726574726163745F616363656C3E207A
:10208000543C74726176656C5F616363656C3E0A93
:1020900000204500205A0020590020204D323031C8
:1020A0002058004D6178696D756D20416363656CE2
:1020B00065726174696F6E2028756E6974732F7311
:1020C00032293A0A00204500205A002059002020D9
:1020D0004D3230332058004D6178696D756D206642
:1020E00065656472617465732028756E6974732FF9
:1020F00073293A0A00204500205A00205900202068
:102100004D39322058005374657073207065722009
:10211000756E69743A0A0020204D32303020443008
:102120000A0020204D323030204400204469736181
:10213000626C65640A0046696C616D656E7420733B
:10214000657474696E67733A0020204D313439200C
:1021500043203B20556E69747320696E2043656C83
:10216000736975730A002020473231202020203BFC
:1021700000545249474745524544006F70656E0010
:102180003A20007A5F6D6178007A5F6D696E007940
:102190005F6D696E00785F6D6178005265706F7277
:1021A00074696E6720656E6473746F7020737461F8
:1021B0007475730A0020746F6F206C6F6E672065F2
:1021C0007874727573696F6E2070726576656E745F
:1021D00065640A0020636F6C64206578747275739F
:1021E000696F6E2070726576656E7465640A00248E
:1021F000F4D43050C38E20C2A24017828B701112CB
:102200007A910D816CD90AA861E108C75866076107
:102210005143061E4B5D05C145A7041A411104092F
:102220003D9803713931034036DB0265339102D4A6
:10223000305402802E1D02632CEE01752AC501B0B8
:1022400028A001102781018F2564012B244B01E078
:10225000223401AC211F018D200D01801FFC008460
:102260001EED00971DDF00B81CD200E61BC6002043
:102270001BBC00641AB200B219A8000A19A0006AB7
:10228000189900D117910040178B00B516840031C2
:10229000167E00B31579003A157300C7146F005805
:1022A000146A00EE1366008813630025135E00C7EE
:1022B000125B006C12570015125400C111510070CE
:1022C000114F0021114B00D61049008D10470046D8
:1022D00010440002104200C00F4000800F3E004238
:1022E0000F3C00060F3B00CB0E3800930E37005C0E
:1022F0000E3500270E3400F30D3200C10D31009071
:102300000D3000600D2E00320D2D00050D2C00D972
:102310000C2B00AE0C2900850C29005C0C27003525
:102320000C27000E0C2600E80B2400C40B2400A090
:102330000B23007D0B23005A0B2100390B210018C1
:102340000B2000F80A1F00D90A1E00BB0A1E009DC0
:102350000A1D00800A1D00630A1C00470A1B002C8E
:102360000A1B00110A1A00F7091A00DD091900C436
:10237000091900AB091900920917007B09180063BD
:102380000917004C09160036091600200916000A24
:10239000091500F5081500E0081400CC081400B871
:1023A000081400A4081400900813007D0812006BA4
:1023B00008130058081200460812003408110023C0
:1023C0000811001208110001081100F0071000E0C8
:1023D000071000D0071000C0071000B0070F00A1C1
:1023E00007100091070E0083070F0074070F0065A8
:1023F000070E0057070E0049070E003B070D002E81
:10240000070E0020070D0013070D0006070D00F949
:10241000060C00ED060D00E0060C00D4060C00C80A
:10242000060C00BC060C00B0060C00A4060B0099BC
:10243000060C008D060B0082060B0077060B006C65
:10244000060B0061060A0057060B004C060A004204
:10245000060A0038060A002E060A0024060A001A98
:10246000060A001006090007060A00FD050900F427
:10247000050900EB050900E2050900D9050900D0AE
:10248000050900C7050900BE050900B5050800AD2E
:10249000050800A50509009C050800940508008CA6
:1024A000050800840508007C050800740508006C18
:1024B000050700650508005D050700560508004E84
:1024C00005070047050700400508003805070031EB
:1024D0000507002A050700230507001C050600164E
:1024E0000507000F0507000805060002050700FBA9
:1024F000040600F5040700EE040600E8040600E206
:10250000040700DB040600D5040600CF040600C95A
:10251000040600C3040600BD040600B7040600B1AB
:10252000040500AC040600A6040600A00405009BF8
:1025300004060095040500900406008A0405008541
:10254000040500800406007A040500750405007087
:102550000405006B04050066040500610405005CC9
:1025600004050057040500520405004D0405004809
:10257000040500430405003E0404003A0405003548
:10258000040500300404002C040500270404002383
:102590000405001E0404001A0404001604050011BA
:1025A0000404000D040400090405000404040000F0
:1025B000040400FC030400F8030400F4030400F026
:1025C000030400EC030400E8030400E4030400E057
:1025D000030400DC030400D8030400D4030400D087
:1025E000030400CC030400C8030300C50303002454
:1025F000F404D9201BC40C5C0E9804C4095F026566
:10260000077101F405F900FB04B30048048700C119
:102610000369005803550003034500BE023A0084D5
:1026200002310053022A002902250004022000E49E
:10263000011C00C8011900AF0117009801140084A3
:10264000011300710110006101100051010E0043DF
:10265000010D0036010B002B010B0020010B0015B2
:102660000109000C01090003010800FB000800F348
:10267000000800EB000700E4000600DE000600D8BA
:10268000000600D2000600CC000500C7000500C20D
:10269000000500BD000400B9000400B5000400B14D
:1026A000000400AD000400A9000400A5000300A27E
:1026B0000003009F0004009B0003009800030095A6
:1026C00000020093000300900003008D0002008BC5
:1026D00000030088000200860002008400030081DD
:1026E0000002007F0002007D0002007B00020079F2
:1026F0000002007700010076000200740002007200
:10270000000100710002006F0002006D0001006C0A
:102710000002006A00010069000200670001006613
:102720000001006500010064000200620001006118
:10273000000100600001005F0002005D0001005C1C
:102740000001005B0001005A00010059000100581F
:10275000000100570001005600010055000100541F
:10276000000100530000005300010052000100511D
:10277000000100500001004F0001004E0000004E1B
:102780000001004D0001004C0001004B0000004B17
:102790000001004A00010049000100480000004813
:1027A000000100470001004600000046000100450E
:1027B0000000004500010044000100430000004308
:1027C0000001004200000042000100410000004101
:1027D000000100400001003F0000003F0001003EFA
:1027E0000000003E0001003D0000003D0001003CF3
:1027F0000000003C0000003C0001003B0000003BEA
:102800000001003A0000003A0001003900000039E0
:1028100000010038000000380000003800010037D7
:1028200000000037000100360000003600000036CE
:1028300000010035000000350000003500010034C3
:1028400000000034000000340001003300000033B9
:1028500000000033000100320000003200000032AE
:1028600000010031000000310000003100010030A3
:1028700000000030000000300001002F0000002F99
:102880000000002F0000002F0001002E0000002E8D
:102890000000002E0001002D0000002D0000002D82
:1028A0000000002D0001002C0000002C0000002C76
:1028B0000000002C0001002B0000002B0000002B6A
:1028C0000000002B0001002A0000002A0000002A5E
:1028D0000000002A00010029000000290000002952
:1028E0000000002900000029000100280000002845
:1028F0000000002800000028000000280001002738
:10290000000000270000002700000027000000272B
:10291000000100260000002600000026000000261E
:102920000000002600010025000000250000002511
:102930000000002500000025000000250001002403
:1029400000000024000000240000002400000024F7
:1029500000010023000000230000002300000023EA
:1029600000000023000000230000002300010022DB
:1029700000000022000000220000002200000022CF
:1029800000000022000100210000002100000021C1
:1029900000000021000000210000002100000021B3
:1029A00000010020000000200000002000000020A6
:1029B0000000002000000020000000200000002097
:1029C0000001001F0000001F0000001F0000001F8A
:1029D0000000001F0000001F0000001F0001001E7B
:1029E0000000001E0000001E0000001E0000000489
:1029F0003700001E290000511B0000581000001075
:102A0000090000CC04000078020000410100000928
:102A1000FFFFFFFFFF000101010101453120544884
:102A200045524D414C2052554E4157415900546832
:102A300065726D616C2052756E6177617900453108
:102A40002048656174696E67206661696C65640021
:102A500048656174696E67206661696C65640045EC
:102A600031204572723A204D415854454D50004D29
:102A7000415854454D5020747269676765726564AA
:102A8000004531204572723A204D494E54454D5013
:102A9000004D494E54454D50207472696767657208
:102AA0006564004D383420582059205A20450020B4
:102AB0002F0020403A00FFE0FFD11000FFFEFFD0C2
:102AC000FFE0FFC1FFD1E240A0C8A6A32FF800237A
:102AD0008127AC00AFFF64A5FF64FF64A4FFD0FFB3
:102AE000FE4D6F76696E672E2E2E000000000000EE
:102AF000000000000000C1B22E2E2E0000000000D9
:102B000000000000000000000000004465706C61DF
:102B100063656D656E742E2E2E00000000000000AF
:102B2000496E204265776567756E672E2E2E000010
:102B300000000000004D6F7669656E646F2E2E2ECA
:102B400000000000000000000000496E206D6F765C
:102B5000696D656E746F2E2E2E000000000000B2AD
:102B6000C4DEB3C1ADB300000000000000000000EF
:102B7000000000004D6F7665722D7365202E2E2E9D
:102B8000000000000000000000566572706C61617A
:102B90007473656E2E2E2E000000000000004B6F37
:102BA0006E756D6C616E69796F722E2E2E0000004D
:102BB000000000D4972E2E2E000000000000000020
:102BC0000000000000000000D094D0B2D0B8D0B611
:102BD000D0B5D0BCD181D18F2E2E2E000020202048
:102BE000202020005A0059002020202000580020DA
:102BF0000300032000092000000000000000000086
:102C0000000000007FFFE00000000FE7CC10203C38
:102C10000000007000E000000001010A10504200B6
:102C20000000630C60000000010109105002000068
:102C300000470E20000000010108908802000000FB
:102C40004F0F2000000001010890880C0000005F79
:102C50000FA00000000101089104300000005E0791
:102C6000A07F800001010851FC400000004060206E
:102C7000FFC00001010832024000000040F020FFC8
:102C8000C0000107C812027E00000040F020FFC013
:102C9000000000000000000000004060207F800075
:102CA0000000000000000000005E07A07F8000E33D
:102CB000878F1C89F3E780005F0FA0FFC0001244DC
:102CC0004888C8420440004F0F20FFC0001224482B
:102CD00088A842044000470E20FFC00062278F08EA
:102CE000A843E78000630C603F000012240A08A894
:102CF000420500007000E01E0000124409089842DE
:102D00000480007FFFE00C0000E384089C8843E41B
:102D10004000000000000000000000000000000073
:102D2000007FFFE00000000FE7CC10203C00000017
:102D30007000E000000001010A1050420000006134
:102D4000F86000000001010910500200000041F885
:102D50002000000001010890880200000040F020DF
:102D600000000001010890880C0000004060200075
:102D700000000101089104300000005801A07F808C
:102D80000001010851FC400000005C63A0FFC0008E
:102D90000101083202400000005EF7A0FFC0000100
:102DA00007C812027E0000005EF7A0FFC00000000E
:102DB000000000000000005C63A07F8000000000B5
:102DC0000000000000005801A07F8000E3878F1CF6
:102DD00089F3E78000406020FFC00012444888C8A3
:102DE0004204400040F020FFC00012244888A8425E
:102DF00004400041F820FFC00062278F08A843E785
:102E0000800061F8603F000012240A08A842050013
:102E1000007000E01E00001244090898420480007F
:102E20007FFFE00C0000E384089C8843E44000003E
:102E300000002052656164792E000000000000004F
:102E4000000000000000A4A5A6A7000000000000EC
:102E50000000000000000000000020507265746552
:102E60002E000000000000000000000000002042D2
:102E70006572656974000000000000000000000039
:102E80000000206C6973746F2E00000000000000C9
:102E90000000000000002070726F6E746F2E000042
:102EA00000000000000000000000207265616479ED
:102EB0002E00000000000000000000000000207054
:102EC000726F6E74612E00000000000000000000B0
:102ED0000000206765726565642E00000000000038
:102EE0000000000000002068617AC4B1722E00006A
:102EF00000000000000000000000205265616479BD
:102F00002E0000000000000000000000000020D0A3
:102F1000B3D0BED182D0BED0B22E000000000000DF
:102F200000005072696E74696E672E2E2E000000CC
:102F3000000000000000CAF32E2E2E00000000004A
:102F400000000000000000000000496D7072657311
:102F500073696F6E2E2E2E00000000000000447278
:102F600075636B656E2E2E2E0000000000000000C1
:102F70000000496D70726573696F6E2E2E2E000011
:102F80000000000000005374616D70612E2E2E0051
:102F9000000000000000000000005072696E7469BB
:102FA0006E672E2E2E000000000000000000496D0C
:102FB0007072657373616F2E2E2E0000000000008A
:102FC0000000686574206472756B6B656E202E2E30
:102FD0002E00000000004261736B692E2E2E00004F
:102FE00000000000000000000000EB9E20E42E2EF8
:102FF0002E00000000000000000000000000D09F34
:10300000D0B5D187D0B0D182D18C2E2E2E00000029
:1030100000005072696E7420706175736564000001
:1030200000000000000000000000000000000000A0
:10303000CAF3F1F2000000000000000000000000F0
:103040000000000000000000000000000000496DCA
:103050007072696D6572206D697320656E20706194
:103060007573650000000000000000004472756385
:103070006B20706175736965727400000000000058
:1030800000000000000000000000506175736172D4
:1030900020696D70726573696F6E0000000000003A
:1030A00000000000000000005374616D7061207327
:1030B0006F73706573610000000000000000000085
:1030C0000000000000005072696E7420706175731A
:1030D0006564000000000000000000000000000027
:1030E00000000000496D7072696D69722070617531
:1030F0007361646F00000000000000000000000029
:1031000000005072696E74206F6E64657262726F37
:103110006B656E0000000000000000000000000071
:103120004261736B6920647572616B6C6174696C68
:103130006469000000000000000000000000EB9E39
:1031400020D7BDE0E6000000000000000000000005
:10315000000000000000000000000000D09FD0B57B
:10316000D187D0B0D182D18C20D0BDD0B020D0BFFB
:10317000D0B0D183D0B7D0B50000CAF3F2F6004783
:1031800032382052302058205900506F7765722015
:103190004C6F7373205265636F766572790000001F
:1031A0000000000000000000E7E8CAF30000000093
:1031B000000000000000000000000000000000000F
:1031C00000000000000052656375702E2064657376
:1031D000207065727465730000000000000000003C
:1031E00000000000576965646572686572737465F4
:1031F0006C6C756E670000000000000000000000AD
:103200000000526563757065726163696F6E206559
:103210006E65726769610000000000000000000038
:10322000526563757065726F000000000000000059
:103230000000000000000000000000000000506FCF
:10324000776572204C6F7373205265636F76657279
:103250007900000000000000000000005265746F5B
:103260006D61722061207265637570657261636162
:103270006F00000000000000000048657273746574
:103280006C207374726F6F6D7665726C6965730014
:103290000000000000000000477563204B61796268
:1032A000C4B1204B75727461726D61000000000042
:1032B000000000000000B0D000000000000000008E
:1032C00000000000000000000000000000000000FE
:1032D00000000000D0B2D0BED181D181D182D0B067
:1032E000D0BDD0BED0B2D0BBD0B5D0BDD0B8D0B597
:1032F00000004D313235004D3234002F2F616374A0
:10330000696F6E3A70617573650A002F2F6163747F
:10331000696F6E3A726573756D650A004D313034B0
:1033200020543020533231300D0A4D373032205482
:1033300030004D31303420543020533231300D0ABA
:103340004D3730312054300054657374696E6720F6
:103350004D656E75004E6F205344206361726400AA
:103360000000000000000000000000F9A8000000BC
:10337000000000000000000000000000000000004D
:1033800000417563756E65206361727465205344F6
:10339000000000000000004B65696E652053442D5D
:1033A0004B6172746500000000000000004E6F2049
:1033B000686179207461726A657461205344000009
:1033C0000000005344206E6F6E2070726573656E4E
:1033D0007465000000000000005344B6B0C4DEB6BF
:1033E000DEB1D8CFBEDD00000000000000000053B9
:1033F000656D2063617274616F20534400000000AA
:1034000000000000004765656E205344206B616139
:1034100072740000000000000000005344204B6163
:10342000727420596F6B0000000000000000000063
:10343000005344ED998320C5BC91922E00000000FA
:1034400000000000000000D09DD0B5D18220534480
:1034500020D0BAD0B0D180D182D18B00004D313094
:103460003420543020533231300D0A4D3730322061
:103470005430004D31303420543020533231300D2F
:103480000A4D37303120543000526573756D652018
:103490007072696E740000000000000000000000FF
:1034A000000000000000000000000000F4F5CAF376
:1034B000000000000000000000000000000000000C
:1034C00000000000000000000000000000000052AA
:1034D000657072656E64726520696D707265737374
:1034E000696F6E0000000000000000000000000096
:1034F000000053442D447275636B20466F727473E1
:1035000065747A756E67000000000000000000001E
:1035100000000000005265746F6D617220696D706B
:10352000726573696F6E000000000000000000000B
:10353000000000000000000052697072656E64694E
:10354000207374616D7061000000000000000000D5
:103550000000000000000000000000CCDFD8DDC447
:10356000BBB2B6B200000000000000000000000086
:103570000000000000000000000000000000526594
:10358000746F6D617220696D7072657373616F0025
:10359000000000000000000000000000000000002B
:1035A000005072696E742068657276617474656E1D
:1035B000000000000000000000000000000000000B
:1035C0000000000053757264757200000000000076
:1035D00000000000000000000000000000000000EB
:1035E00000000000000000EB9E20DD8400000000D1
:1035F00000000000000000000000000000000000CB
:1036000000000000000000000000D09FD180D0BE6C
:10361000D0B4D0BED0BBD0B6D0B8D182D18C20D05F
:10362000BFD0B5D187D0B0D182D18C000053746F98
:1036300070207072696E74000000000000000000CD
:10364000000000000000000000000000000000007A
:10365000F2F6CAF3000000000000000000000000C5
:10366000000000000000000000000000000000005A
:10367000000000417272657420696D707265737329
:10368000696F6E00000000000000000000000000F4
:1036900000000000000053442D447275636B20410C
:1036A00062627275636800000000000000000000A4
:1036B000000000000000000000446574656E657243
:1036C00020696D70726573696F6E00000000000004
:1036D0000000000000000000000000004172726560
:1036E000737461207374616D7061000000000000EC
:1036F000000000000000000000000000000000CCFE
:10370000DFD8DDC4C3B2BC00000000000000000030
:1037100000000000000000000000000000000000A9
:103720000000506172617220696D7072657373611F
:103730006F0000000000000000000000000000001A
:1037400000000000005072696E742073746F707016
:10375000656E000000000000000000000000000096
:1037600000000000000000004475726475720000E3
:103770000000000000000000000000000000000049
:103780000000000000000000000000EB9E20E4E6C6
:103790000000000000000000000000000000000029
:1037A0000000000000000000000000000000D09EAB
:1037B000D181D182D0B0D0BDD0BED0B2D0B8D1826C
:1037C000D18C20D0BFD0B5D187D0B0D182D18C00E0
:1037D000005061757365207072696E74000000009E
:1037E00000000000000000000000F1F2CAF3000039
:1037F00000000000000000000000000000000000C9
:10380000000000506175736520696D707265737397
:10381000696F6E00000000000000000053442D445A
:103820007275636B205061757365000000000000C5
:10383000000000000050617573617220696D707244
:103840006573696F6E0000000000000000005061A9
:10385000757361000000000000000000000000001F
:1038600000000000000000B2C1BCDEC3B2BC00001A
:103870000000000000000000000000000000000048
:1038800050617573617220696D7072657373616FD9
:103890000000000000000000005072696E7420708B
:1038A00061757A6572656E0000000000000000001E
:1038B0000000447572616B6C6174000000000000D0
:1038C0000000000000000000000000EB9E20D7BDBB
:1038D000E4E600000000000000000000000000001E
:1038E00000000000D09FD0B0D183D0B7D0B020D09E
:1038F000BFD0B5D187D0B0D182D0B8000054756E9A
:103900006500000000000000000000000000000052
:1039100000CFF000000000000000000000000000E8
:1039200000000000005265676C6572000000000036
:103930000000000000000000004A757374696572A1
:10394000756E6700000000000000000000416A750D
:1039500073746172000000000000000000000000AD
:10396000005265676F6C61000000000000000000FD
:103970000000000000C1AEB3BEB2000000000000B5
:103980000000000000000000004166696E617200E6
:10399000000000000000000000000000004166730D
:1039A00074656C6C656E0000000000000000000093
:1039B000004179617200000000000000000000007A
:1039C0000000000000E2E000000000000000000035
:1039D000000000000000000000D09DD0B0D181D1D7
:1039E00082D180D0BED0B8D182D18C0000496E6621
:1039F0006F2073637265656E0000000000000000B8
:103A000000000000000000000000000000000000B6
:103A1000000000000000ECEDEEEF000000000000F0
:103A20000000000000000000000000000000000096
:103A30000000000000000000000000000000004541
:103A40006372616E20696E666F7300000000000093
:103A50000000000000000000000000000000000066
:103A60000000000000000000496E666F00000000CA
:103A70000000000000000000000000000000000046
:103A80000000000000000000000000000000000036
:103A90000050616E74616C6C6120696E666F726D4E
:103AA0006163696F6E00000000000000000000000C
:103AB00000000000000000000000477561726461B2
:103AC00000000000000000000000000000000000F6
:103AD00000000000000000000000000000000000E6
:103AE000000000BCDEAEB3CEB3B6DED2DD00000017
:103AF00000000000000000000000000000000000C6
:103B00000000000000000000000000004D6F6E6922
:103B1000746F72697A61720000000000000000009A
:103B20000000000000000000000000000000000095
:103B30000000000000496E666F2073636865726D57
:103B40000000000000000000000000000000000075
:103B500000000000000000000000000000004269BA
:103B60006C676920456B72616E690000000000009F
:103B70000000000000000000000000000000000045
:103B800000000000000000B4EE20E0AF00000000E4
:103B90000000000000000000000000000000000025
:103BA0000000000000000000000000000000000015
:103BB000D098D0BDD184D0BED180D0BCD0B0D18679
:103BC000D0B8D0BED0BDD0BDD18BD0B920D18DD092
:103BD000BAD180D0B0D0BD0000466C6F7700000035
:103BE0000000000000CCADD1D200000000000000B9
:103BF00000436F756C6572000000000000466C7534
:103C0000737372617465000000466C756A6F000022
:103C10000000000000466C7573736F000000000028
:103C200000C4BCADC2D8AEB30000000000466C7545
:103C3000786F00000000000000466C6F7700000005
:103C40000000000000416B697300000000000000EC
:103C500000C0EB20BA9600000000000000D09FD00A
:103C6000BED182D0BED0BA000046616E20737065AE
:103C70006564000000000000000000D5D6D1D2002D
:103C80000000000000000000000000000056697401
:103C9000657373652076656E74696C000000004C76
:103CA00075667465720000000000000000000000EE
:103CB0000056656E74696C61646F720000000000EC
:103CC00000000056656C6F636974612076656E74E0
:103CD0006F6C610000CCA7DDBFB8C4DE000000003F
:103CE0000000000000000056656C2E2076656E74A2
:103CF0006F696E68610000000046616E20736E653A
:103D00006C6865696400000000000046616E204830
:103D1000697A6900000000000000000000F620BA87
:103D2000960000000000000000000000000000D02D
:103D30009AD183D0BBD0B5D1800000000000000034
:103D40000053706565640000000000000000000082
:103D5000000000D1D20000000000000000000000C0
:103D600000000000004C6120766974657373650083
:103D7000000000000000004765736368772E0000B4
:103D800000000000000000000056656C6F6369646D
:103D9000616400000000000000000056656C6F6365
:103DA00069746100000000000000000000BFB8C49A
:103DB000DE000000000000000000000000000056CF
:103DC000656C6F6369646164650000000000000059
:103DD00000536E656C6865696400000000000000B7
:103DE00000000048697A00000000000000000000A8
:103DF0000000000000BA9600000000000000000073
:103E000000000000000000D0A1D0BAD0BED180D008
:103E1000BED181D182D18C000057697A6172640071
:103E20000000000000000000000000000000000092
:103E300000A2A3EEEF000000000000000000000060
:103E40000000000000000000004C616E63657220FD
:103E50006C6120636F6E6669672E000000000000D1
:103E6000004D6167696572000000000000000000FD
:103E700000000000000000000057697A7A61726457
:103E80000000000000000000000000000000000032
:103E90000070726F63656475726120677569646133
:103EA000746100000000000000B3B4B9B600000067
:103EB0000000000000000000000000000000000002
:103EC000005573616E646F206F2061737369737442
:103ED000656E7465000000000044652077697A61B2
:103EE0007264206765627275696B656E0000000020
:103EF00000536968697262617AC4B1206B756C6C39
:103F0000616E6D610000000000A0EFBBBFABB200AE
:103F100000000000000000000000000000000000A1
:103F200000D0BAD0BED0BBD0B4D183D0BD00000089
:103F300000000000000000000044697361626C65CD
:103F400020737465707065727300000000000000DB
:103F500000000000000000B5B6B7B8B9BA00000014
:103F60000000000000000000000000000000000051
:103F700000000000004465736163746976206C651D
:103F800020706173206120706173000000000000E8
:103F90000000004D6F746F72656E206465616B7414
:103FA0006976696572656E0000000000000000001F
:103FB00000417061676172206D6F746F726573008C
:103FC00000000000000000000000000000000044AD
:103FD00069736162696C697461204D6F746F726995
:103FE00000000000000000000000000000D3B0C08E
:103FF000B0C3DEDDB9DEDD20B5CC0000000000007E
:1040000000000000000000000000004465736163D0
:104010007469766172206D6F746F72657300000051
:104020000000000000000000004D6F746F72656EAC
:10403000207569740000000000000000000000000E
:10404000000000000000004D6F746F726C617269B7
:1040500020447572647572000000000000000000CA
:104060000000000000A0F020E4E6000000000000D6
:104070000000000000000000000000000000000040
:10408000000000D092D18BD0BAD0BB2E20D0B4D0BB
:10409000B2D0B8D0B3D0B0D182D0B5D0BBD0B800F8
:1040A000004D3834004C6576656C20626564000014
:1040B0000000000000000000000000000000000000
:1040C000000000000000B1B2CFD0000000000000EE
:1040D00000000000000000000000000000000000E0
:1040E000000000000000004D6973652061206E69CA
:1040F000766561750000000000000000000000000F
:10410000000000000000000042657474206E6976B3
:10411000656C6C696572656E00000000000000004F
:104120000000000000000000004E6976656C6172BE
:1041300020706C617461666F726D61000000000038
:10414000000000000000000000004C6976656C6C07
:1041500061207069616E6F000000000000000000C7
:104160000000000000000000000000CDDEAFC4DE53
:10417000DACDDED8DDB8DE0000000000000000006F
:1041800000000000000000000000000043616D61BD
:10419000206E6976656C61646100000000000000BB
:1041A000000000000000000000000000004C6576E8
:1041B000656C2062656400000000000000000000E3
:1041C0000000000000000000000000000000536537
:1041D0007669796520796174616769000000000083
:1041E000000000000000000000000000000000CA05
:1041F000F19DAD0000000000000000000000000084
:1042000000000000000000000000000000000000AE
:10421000D09AD0B0D0BBD0B8D0B1D180D0BED0B2BF
:10422000D0B0D182D18C20D181D182D0BED0BB0080
:1042300000473238205A20463530300D0A47323890
:10424000205820592046313030300A473239004159
:1042500075746F20686F6D6500000000000000003D
:1042600000000000000000000000BBBCBD0000001A
:10427000000000000000000000000000000000003E
:1042800000000000005265746F7572206F726967DC
:10429000696E6500000000000000000000000000E2
:1042A000486F6D6500000000000000000000000085
:1042B00000000000000000000000004175746F2045
:1042C000496E6963696F0000000000000000000093
:1042D0000000000000004175746F20486F6D65009C
:1042E00000000000000000000000000000000000CE
:1042F00000B9DEDDC3DDCCAFB70000000000000078
:104300000000000000000000000000004972207062
:10431000617261206F726967656D000000000000C6
:10432000000000000000004175746F20686F6D652B
:10433000000000000000000000000000000000007D
:104340000000456B73656E6C657269205369666920
:10435000726C6100000000000000000000D0D1EC91
:10436000000000000000000000000000000000004D
:104370000000000000000000D090D0B2D182D0BE7A
:1043800020D0BFD0B0D180D0BAD0BED0B2D0BAD0B9
:10439000B00000473238205A20463530300D0A47E9
:1043A0003238205820592046313030300D0A4731FC
:1043B0002058353520593535204631303030004DC4
:1043C00031303420543020533231300D0A4D3730E3
:1043D000322054300D0A4D313034205330004D31ED
:1043E000303420543020533231300D0A4D373031C3
:1043F0002054300D0A4D313034205330004D6F764B
:104400006520302E316D6D000000000000000000BE
:1044100000000000000000C1B220302E316D6D00A0
:10442000000000000000000000000000000000008C
:10443000004465706C6163657220302E316D6D00D3
:104440000000000000000000000000302E316D6D03
:10445000000000000000000000000000000000005C
:1044600000000000004D6F76657220302E316D6DBA
:104470000000000000000000000000000000004DEF
:10448000756F766920646920302E316D6D000000F3
:10449000000000000000000000302E316D6D20B2E1
:1044A000C4DEB300000000000000000000000000B7
:1044B0000000004D6F76657220302E316D6D00006A
:1044C00000000000000000000000000000566572BF
:1044D000706C6161747320302E316D6D00000000CE
:1044E00000000000000000302E316D6D0000000063
:1044F00000000000000000000000000000000000BC
:1045000000302E316D6D20D49700000000000000B7
:104510000000000000000000000000D094D0B2D0E5
:10452000B8D0B6D0B5D0BDD0B8D0B520302E31D0AF
:10453000BCD0BC00004D6F766520316D6D00000071
:1045400000000000000000000000000000C1B220D8
:10455000316D6D0000000000000000000000000050
:1045600000000000004465706C6163657220316D6D
:104570006D000000000000000000000000316D6DC3
:10458000000000000000000000000000000000002B
:1045900000000000004D6F76657220316D6D0000E7
:1045A000000000000000000000000000004D756FDA
:1045B0007669206469202020316D6D0000000000C4
:1045C00000000000002020316D6D20B2C4DEB30079
:1045D000000000000000000000000000004D6F76A9
:1045E000657220316D6D00000000000000000000C9
:1045F0000000000000566572706C616174732031B8
:104600006D6D0000000000000000000000316D6DC5
:10461000000000000000000000000000000000009A
:104620000000000000316D6D20D4970000000000F4
:1046300000000000000000000000000000D094D046
:10464000B2D0B8D0B6D0B5D0BDD0B8D0B52031D06A
:10465000BCD0BC00004D6F76652031306D6D000020
:104660000000000000000000000000000000C1B2D7
:104670002031306D6D0000000000000000000000DF
:10468000000000000000004465706C6163657220EA
:104690003130206D6D0000000000000000000000BF
:1046A00031306D6D000000000000000000000000CF
:1046B0000000000000000000004D6F7665722031A0
:1046C000306D6D00000000000000000000000000E0
:1046D00000004D756F7669206469202031306D6D62
:1046E00000000000000000000000002031306D6D6F
:1046F00020B2C4DEB3000000000000000000000093
:10470000000000004D6F7665722031306D6D000045
:10471000000000000000000000000000005665726C
:10472000706C616174732031306D6D0000000000A9
:1047300000000000000031306D6D0000000000003E
:104740000000000000000000000000000000003138
:10475000306D6D20D49700000000000000000000C4
:104760000000000000000000D094D0B2D0B8D0B655
:10477000D0B5D0BDD0B8D0B5203130D0BCD0BC0081
:10478000004D6F76652061786973000000000000BD
:104790000000000000000000000000000000000019
:1047A00000C1B2CE000000000000000000000000C8
:1047B00000000000000000000000000000000000F9
:1047C000004465706C61636572206C2761786500D8
:1047D00000000000000000000000000000000000D9
:1047E000004265776567656E00000000000000000C
:1047F00000000000000000000000000000000000B9
:10480000004D6F76657220656A65730000000000D8
:104810000000000000000000000000000000000098
:10482000004D756F766920417373650000000000CC
:104830000000000000000000000000000000000078
:1048400000BCDEB8B2C4DEB300000000000000000F
:104850000000000000000000000000000000000058
:10486000004D6F766572206569786F00000000006A
:104870000000000000000000000000000000000038
:1048800000417320766572706C61617473656E00AF
:104890000000000000000000000000000000000018
:1048A00000456B73656E20596F6E657400000000E3
:1048B00000000000000000000000000000000000F8
:1048C00000EA20D497000000000000000000000073
:1048D00000000000000000000000000000000000D8
:1048E00000D094D0B2D0B8D0B6D0B5D0BDD0B8D06A
:1048F000B520D0BFD0BE20D0BED181D18FD0BC00DA
:104900000045787472756465720000000000000054
:104910000000000000CCADBA000000000000000064
:1049200000000000000000000045787472756465A6
:10493000757200000000000000000000004578745F
:104940007275646572000000000000000000000045
:10495000004578747275736F7200000000000000EB
:1049600000000000004573747275736F726500007B
:10497000000000000000000000B4B8BDC4D9B0C001
:10498000DEB000000000000000000000004D6F7667
:104990006572204578747275736F720000000000B4
:1049A00000457874727564657200000000000000B4
:1049B0000000000000456B7374727564657200003E
:1049C000000000000000000000D5BBF2A094000031
:1049D00000000000000000000000000000D0ADD08A
:1049E000BAD181D182D180D183D0B4D0B5D1800069
:1049F000004D6F7665205A000000000000000000A6
:104A000000000000000000000000C1B2205A0000B9
:104A10000000000000000000000000000000000096
:104A20000000004465706C61636572205A000000EC
:104A300000000000000000000000000056657273D6
:104A4000636869656265205A00000000000000008C
:104A500000000000004D6F766572205A00000000D3
:104A600000000000000000000000000000004D7584
:104A70006F7669205A00000000000000000000006E
:104A8000000000000000005ABCDEB820B2C4DEB353
:104A90000000000000000000000000000000000016
:104AA0004D6F766572205A00000000000000000083
:104AB000000000000000000000566572706C61612B
:104AC0007473205A00000000000000000000000085
:104AD00000005A000000000000000000000000007C
:104AE00000000000000000000000005AEA20D497F7
:104AF00000000000000000000000000000000000B6
:104B000000000000D094D0B2D0B8D0B6D0B5D0BD9F
:104B1000D0B8D0B520D0BFD0BE205A00004D6F769F
:104B200065205900000000000000000000000000A7
:104B3000000000000000C1B2205900000000000089
:104B40000000000000000000000000000000004421
:104B500065706C6163657220590000000000000000
:104B6000000000000000000056657273636869650C
:104B700062652059000000000000000000000000F5
:104B8000004D6F76657220590000000000000000A3
:104B9000000000000000000000004D756F766920E5
:104BA00059000000000000000000000000000000AC
:104BB00000000059BCDEB820B2C4DEB30000000023
:104BC0000000000000000000000000004D6F76654E
:104BD00072205900000000000000000000000000EA
:104BE0000000000000566572706C6161747320599A
:104BF000000000000000000000000000000059005C
:104C000000000000000000000000000000000000A4
:104C10000000000000000059EA20D49700000000C6
:104C20000000000000000000000000000000000084
:104C3000D094D0B2D0B8D0B6D0B5D0BDD0B8D0B561
:104C400020D0BFD0BE205900004D6F76652058009F
:104C50000000000000000000000000000000000054
:104C60000000C1B220580000000000000000000059
:104C700000000000000000000000004465706C614E
:104C80006365722058000000000000000000000072
:104C9000000000005665727363686965626520589C
:104CA000000000000000000000000000004D6F76D2
:104CB00065722058000000000000000000000000A5
:104CC0000000000000004D756F766920580000005C
:104CD000000000000000000000000000000000587C
:104CE000BCDEB820B2C4DEB300000000000000004B
:104CF00000000000000000004D6F76657220580033
:104D000000000000000000000000000000000000A3
:104D100000566572706C6161747320580000000069
:104D2000000000000000000000005800000000002B
:104D30000000000000000000000000000000000073
:104D400000000058EA20D497000000000000000096
:104D5000000000000000000000000000D094D0B26D
:104D6000D0B8D0B6D0B5D0BDD0B8D0B520D0BFD097
:104D7000BE2058000050726570617265000000002E
:104D800000000000000000000000000000A4A5EEEC
:104D9000EF00000000000000000000000000000024
:104DA00000000000005072657061726572000000C2
:104DB00000000000000000000000000000566F72BC
:104DC000626572656974756E67000000000000001E
:104DD0000000000000507265706172617200000096
:104DE000000000000000000000000000005072659C
:104DF000706172610000000000000000000000000F
:104E00000000000000BCDEADDDCBDEBEAFC3B200F3
:104E1000000000000000000000000000005072656B
:104E2000706172617200000000000000000000006C
:104E30000000000000566F6F7262657265696465FC
:104E40006E00000000000000000000000048617AD1
:104E500069726C696B000000000000000000000037
:104E60000000000000E3B120DAC4000000000000F0
:104E700000000000000000000000000000D09FD0F3
:104E8000BED0B4D0B3D0BED182D0BED0B2D0B8D113
:104E900082D18C0000526573746F72652064656600
:104EA00061756C740000000000000000000000004C
:104EB0000000000000000000000000E7E8ADE9BECF
:104EC000BF00000000000000000000000000000023
:104ED00000000000000000000000000000000000D2
:104EE000005265737461757265722070617220641E
:104EF000656661757400000000000000000000009D
:104F0000000000000000005374616E6461726477F9
:104F100065727465206C6164656E000000000000BD
:104F20000000000000000000000000000052657357
:104F300074617572617220706F722064656665635A
:104F4000746F00000000000000000000000000007E
:104F500000000052697072697374696E6120696D36
:104F6000702E0000000000000000000000000000A3
:104F7000000000000000000000BEAFC3B2D8BEAF0A
:104F8000C40000000000000000000000000000005D
:104F900000000000000000000000000000000052BF
:104FA00065737461757261722070616472616F0003
:104FB00000000000000000000000000000000000F1
:104FC00000000000004865727374656C20737461A2
:104FD0006E64616172640000000000000000000067
:104FE00000000000000000000000005661727361C4
:104FF00079696C616E6120646F6E64757200000087
:1050000000000000000000000000000000000000A0
:1050100000B6E020E88BFC0000000000000000006B
:105020000000000000000000000000000000000080
:1050300000000000000000D092D0BED181D181D10B
:1050400082D0B0D0BDD0BED0B2D0B8D182D18C2069
:10505000D0BDD0B0D181D182D1802E00005A204F56
:1050600066667365742053657474696E670000002A
:1050700000BEBF5ACEC0C10000000000000000000A
:1050800000000000005A204F66667365740000003F
:105090000000000000000000005A20566572736195
:1050A000747A0000000000000000000000446573F6
:1050B00066617365205A00000000000000000000D7
:1050C000005A204F666673657400000000000000FF
:1050D00000000000005AB5CCBEAFC40000000000C4
:1050E00000000000000000000044657376696F2036
:1050F0005A0000000000000000000000005A204F8D
:105100006666736574000000000000000000000087
:10511000005A204F666673657400000000000000AE
:1051200000000000005A20CCB80000000000000081
:10513000000000000000000000D0A1D0BCD0B5D11C
:1051400089D0B5D0BDD0B8D0B5205A000054656D17
:1051500070657261747572650000000000000000E7
:105160000000000000C9D2BEBF0000000000000027
:105170000000000000000000000000000054656D09
:1051800070657261747572650000000000000000B7
:10519000000000000054656D7065726174757200E6
:1051A0000000000000000000000000000054656DD9
:1051B000706572617475726100000000000000008B
:1051C000000000000054656D706572617475726155
:1051D00000000000000000000000000000B5DDC479
:1051E000DE000000000000000000000000000000E1
:1051F000000000000054656D706572617475726125
:105200000000000000000000000000000054656D78
:105210007065726174757572000000000000000016
:105220000000000000536963616B6C696B00000053
:1052300000000000000000000000000000CB96000D
:10524000000000000000000000000000000000005E
:105250000000000000D0A2D0B5D0BCD0BFD0B5D1E6
:1052600080D0B0D182D183D180D0B000004E6F7A8F
:105270007A6C65000000000000D3D400000000003C
:10528000000000000042757365000000000000008F
:1052900000447573650000000000000000426F715B
:1052A00075696C6C61000000005567656C6C6F007F
:1052B0000000000000C9BDDED900000000000000B1
:1052C000004269636F00000000000000004E6F7A2A
:1052D0007A6C650000000000004E6F7A756C00006B
:1052E00000000000008FE50000000000000000004A
:1052F00000D0A1D0BED0BFD0BBD0BE000043616EF5
:105300006E6F7420656E7465722073756264697265
:105310003A2000022E2E005052494E542050415542
:1053200053454400000000000000000000000000A1
:105330000000000000CAF3F1F2202020202000002D
:10534000000000000000000000000000000000005D
:10535000000000494D5052494D455220504155538F
:1053600045440000000000000000000000000000B4
:1053700000445255434B2050415553494552540027
:1053800000000000000000000000000000000049D4
:105390004D50522E205041555341444100000000D1
:1053A0000000000000000000000000000053544115
:1053B0004D504120494E20504155534100000000BE
:1053C00000000000000000000000005052494E5450
:1053D00020504155534544000000000000000000EB
:1053E000000000000000000000494D5052494D49A6
:1053F00052205041555341444F000000000000002E
:105400000000000000000041464452554B20474533
:105410005041555A4545524400000000000000002C
:10542000000000000059415A44495220445552445A
:105430005500000000000000000000000000000017
:10544000000000EB9E20D7BDE4E600000000000055
:10545000000000000000000000000000000000004C
:1054600000D09FD0B5D187D0B0D182D18C20D0BD13
:10547000D0B020D0BFD0B0D183D0B7D0B5000041DC
:1054800075746F20526574726163742046696C6133
:105490006D656E740000000000000000000093E4E1
:1054A0009294202020202000000000000000000036
:1054B00000000000000000000000000000446563E0
:1054C000686172676572206C652066696C616D65E4
:1054D0006E740000000000000000000046696C616E
:1054E0006D656E7420656E746C6164656E0000009D
:1054F000000000000000000000000072657472618E
:105500006363696F6E2066696C616D656E746F00B0
:105510000000000000000000000053636172696336
:10552000612046696C616D656E74000000000000CA
:10553000000000000000000000CCB2D7D2DDC42083
:10554000B1B3C40000000000000000000000000033
:105550000000000000000000526574726169722052
:1055600046696C616D656E746F000000000000009C
:10557000000000000000004175746F2052657472D5
:105580006163742046696C616D656E740000000093
:1055900000000000000046696C616D656E74692052
:1055A000476572692043656B000000000000000041
:1055B0000000000000F79CA0F220E9EB00000000D2
:1055C00000000000000000000000000000000000DB
:1055D00000000000D090D0B2D182D0BE20D092D1B5
:1055E00082D18FD0B3D0B8D0B2D0B0D0BDD0B8D0E7
:1055F000B500004175746F20466565642046696C8E
:10560000616D656E74000000000000000000000085
:105610000000000000000000E4AB92942020202055
:10562000200000000000000000000000000000005A
:10563000000000000000000000000000004368615E
:1056400072676572206C652066696C616D656E7449
:10565000000000000000000000000000000000004A
:10566000000046696C616D656E74206C6164656EE6
:10567000000000000000000000000000000000002A
:1056800000000000000000656E74726164612064B7
:10569000652066696C616D656E746F0000000000C6
:1056A000000000000000000000000000436172697B
:1056B00063612066696C616D656E746F0000000047
:1056C00000000000000000000000000000000000DA
:1056D00000CCB2D7D2DDC420B2DD00000000000053
:1056E00000000000000000000000000000000000BA
:1056F000000000000000416C696D656E7465204615
:10570000696C616D656E74000000000000000000AF
:1057100000000000000000000000004175746F20D0
:10572000466565642046696C616D656E74000000B5
:105730000000000000000000000000000000000069
:1057400059656D2046696C616D656E746900000075
:105750000000000000000000000000000000000049
:105760000000000000F79CA0F220B3D80000000069
:105770000000000000000000000000000000000029
:1057800000000000000000000000D097D0B0D0B3AF
:10579000D180D183D0B7D0BAD0B020D184D0B8D006
:1057A000BBD0B0D0BCD0B5D0BDD182D0B0000050FD
:1057B00075726765206D6F72650000000000000063
:1057C0000000000000000000000000000000E4AB4A
:1057D000E0E19294000000000000000000000000E2
:1057E0000000000000000000000000000050757282
:1057F000676520706C7573000000000000000000F9
:105800000000000000000000000000004D6568720C
:1058100020656E746C656572656E000000000000A6
:105820000000000000000000000000707572676159
:1058300072206D6173000000000000000000000095
:10584000000000000000000000004C696265726109
:1058500020646920706975000000000000000000ED
:105860000000000000000000005075726765206DA8
:105870006F726500000000000000000000000000E2
:105880000000000000000000507572676172206D1A
:1058900061697300000000000000000000000000CB
:1058A000000000000000005075726765206D65659E
:1058B0007200000000000000000000000000000076
:1058C0000000000000006461686120746173666913
:1058D00079652065740000000000000000000000F1
:1058E0000000000000E98320C0EB00000000000081
:1058F00000000000000000000000000000000000A8
:1059000000000000D09ED187D0B8D181D182D0B81C
:10591000D182D18C20D0B1D0BED0BBD18CD188D097
:10592000B50000436F6E74696E756500000000007D
:10593000000000000000000000F4F500000000007E
:105940000000000000000000000000000000004314
:105950006F6E74696E7565720000000000000000D3
:105960000000000000447275636B65207765697400
:105970006572000000000000000000536567756953
:1059800072000000000000000000000000000000A5
:105990000052697072656E6469207374616D706124
:1059A00000000000000000CCDFD8DDC4BBB2B6B2FE
:1059B00000000000000000000000000000526574BC
:1059C0006F6D617220696D7072657373616F000035
:1059D000000000486572766174207072696E740010
:1059E0000000000000000000004261736B697969EB
:1059F000207375726475720000000000000000885A
:105A0000BA000000000000000000000000000000DC
:105A10000000000000D09FD180D0BED0B4D0BED056
:105A2000BBD0B6D0B8D182D18C0000524553554D71
:105A300045204F5054494F4E533A0000000000009B
:105A4000F4F5FEFF202020202000000000000000D0
:105A500000000000004F5054494F4E532044452051
:105A6000524550524953453A0000464F5254532E26
:105A7000204F5054494F4E454E3A00000000004F11
:105A800050432E205245494E4943494F3A000000A9
:105A9000000000004F505A494F4E493A00000000A4
:105AA000000000000000000000524553554D452005
:105AB0004F5054494F4E533A0000000000004F50E1
:105AC000434F455320444520524553554D4F3A00CE
:105AD000000000524553554D45204F505449455301
